:020000040000FA
:10000000B7EF1DF0C96E120031EF0EF0ACA2FED7B3
:06001000AD6E12001200AB
:0800180067EF1CF0D9CFE5FFF2
:10002000E1CFD9FF00C0E5FF01C0E5FF02C0E5FF59
:1000300003C0E5FF04C0E5FF05C0E5FF06C0E5FF1E
:1000400007C0E5FF08C0E5FF09C0E5FF0AC0E5FFFE
:100050000BC0E5FF0CC0E5FF0DC0E5FF0EC0E5FFDE
:100060000FC0E5FF10C0E5FF11C0E5FF12C0E5FFBE
:1000700013C0E5FF14C0E5FF15C0E5FF16C0E5FF9E
:1000800017C0E5FF18C0E5FF19C0E5FF1AC0E5FF7E
:100090001BC0E5FF1CC0E5FF1DC0E5FF1EC0E5FF5E
:1000A000020EDBCF00F0030EDBCF01F0040EDBCF3E
:1000B00002F0050EDBCF03F0060EDBCF04F0070ED7
:1000C000DBCF05F0080EDBCF06F0090EDBCF07F023
:1000D0000A0EDBCF08F0096A0A6A02C00DF00D5063
:1000E000800A0CE100C05DFF01C05EFF02C05FFF3F
:1000F0000F0E016E5D0E006E800E026E03C0E9FFF2
:1001000004C0F3FF055098EC1DF00B6E0B50D8B4F3
:10011000DFEF03F00B50250A02E0C4EF03F00C6A96
:100120000D6A0E6A0F6A106A0A0E116E126A136A5D
:10013000146A200E156E1668176A2B0E186E032AA5
:10014000D8B0042AD8B0052A03C0E9FF04C0F3FFE1
:10015000055098EC1DF0196E250A15E11950E56E51
:100160000250E56E0150E56E0050E56EB1EC16F000
:10017000040EE126092AD8B00A2A032AD8B0042A94
:10018000D8B0052ABBD71950300A07E1300E156EDA
:10019000032AD8B0042AD8B0052A03C0E9FF04C056
:1001A000F3FF055098EC1DF02D0A07E1010E146EC7
:1001B000032AD8B0042AD8B0052A03C0E9FF04C036
:1001C000F3FF055098EC1DF0200A09E1010E176EAF
:1001D000200E186E032AD8B0042AD8B0052A03C00E
:1001E000E9FF04C0F3FF055098EC1DF02B0A07E16E
:1001F000010E176E032AD8B0042AD8B0052A03C00E
:10020000E9FF04C0F3FF055098EC1DF0196E800F54
:100210004F0F2EE31950800F460F2AE203C019F04A
:1002200004C01AF005C01BF019C0E9FF1AC0F3FFA3
:100230001B5098EC1DF01C6E800F500F13E31C50E8
:10024000800F460F0FE213500A0DF3CF1DF01D5023
:100250001C26D00E1C24136E192AD8B01A2AD8B026
:100260001B2AE2D719C003F01AC004F01BC005F026
:1002700003C0E9FF04C0F3FF055098EC1DF02E0AFF
:1002800030E1032AD8B0042AD8B0052A166A03C080
:1002900019F004C01AF005C01BF019C0E9FF1AC01C
:1002A000F3FF1B5098EC1DF01C6E800F500F13E3F2
:1002B0001C50800F460F0FE216500A0DF3CF1DF0B1
:1002C0001D501C26D00E1C24166E192AD8B01A2ACE
:1002D000D8B01B2AE2D719C003F01AC004F01BC023
:1002E00005F003C0E9FF04C0F3FF055098EC1DF0D2
:1002F000196E6C0A08E1010E0C6E032AD8B0042AAC
:10030000D8B0052A0AD01950680A07E1010E0E6E0E
:10031000032AD8B0042AD8B0052A03C0E9FF04C0D4
:10032000F3FF055098EC1DF0750A07E1010E106E01
:10033000032AD8B0042AD8B0052A03C0E9FF04C0B4
:10034000F3FF055098EC1DF0196E730A05E1010EDC
:100350000D6E200E156E41D01950780A03E1100E73
:10036000116E3BD01950580A05E1100E116E010EA6
:10037000126E33D01950630A02E1116A2ED019505F
:100380006F0A03E1080E116E28D01950660A03E1C6
:10039000010E0F6E22D01950640A1FE01950690A2D
:1003A0001CE0105005E0FF0E03260422052215D0A4
:1003B0001950E56E0250E56E0150E56E0050E56E95
:1003C000B1EC16F0040EE126092AD8B00A2A032A55
:1003D000D8B0042AD8B0052A91D60D5021E0065095
:1003E000030F0D6E000E0720196E000E08201A6E06
:1003F0000DC006F019C007F01AC008F0FD0E0D265A
:10040000FF0E19221A220DC0E9FF19C0F3FF1A507E
:1004100050EC1DF00D6EF3CF19F0F4CF1AF000D1AF
:100420000F500DE0460E0D6E080E196E000E1A6E7E
:10043000040E0626000E072208221668F1D0166860
:100440000C5023E00650040F0C6E000E07200F6EB8
:10045000000E08201B6E0CC006F00FC007F01BC07A
:1004600008F0FC0E0C26FF0E0F221B220CC0E9FF29
:100470000FC0F3FF1B5030EC1DF00C6EF3CF0FF0EC
:10048000F4CF1BF0E9CF1CF06AD00E5032E00650DA
:10049000020F0E6E000E07201D6E000E08201E6E4D
:1004A0000EC006F01DC007F01EC008F0FE0E0E269E
:1004B000FF0E1D221E220EC0E9FF1DC0F3FF1E50BD
:1004C00082EC1DF00E6E0EC00CF0E86A0EBEFF0E40
:1004D0000F6E1B6E1C6E11500A0A03E11050D8B447
:1004E0003ED00C500E6E0EC00CF00F6A1B6A1C6AD8
:1004F00036D00650020F0E6E000E07201D6E000E45
:1005000008201E6E0EC006F01DC007F01EC008F0C9
:10051000FE0E0E26FF0E1D221E220EC0E9FF1DC07C
:10052000F3FF1E5082EC1DF00E6EF3CF1DF00EC0D7
:100530000CF01DC00FF0E86A1DBEFF0E1B6E1C6E96
:1005400011500A0A02E110500AE00C500E6E0F50D2
:100550001D6E0EC00CF01DC00FF01B6A1C6A0E0E43
:10056000196E210E0D6E800E1A6E1150D8B440D047
:10057000105013E01150E56E0E0EE56E210EE56E83
:100580001C50E56E1B50E56E0F50E56E0C50E56E8D
:10059000F8EC13F0070EE12612D01150E56E0E0EA6
:1005A000E56E210EE56E1C50E56E1B50E56E0F509A
:1005B000E56E0C50E56ED8EC19F0070EE1261750E9
:1005C0002FE00DC0E9FF19C0F3FF1A5098EC1DF0A1
:1005D0002D0A26E0FF0E0D2619221A2218C0E5FF6B
:1005E0000DC0E9FF19C0F3FF1A50CDEC1DF018D073
:1005F0000CC0E5FF0DC0E9FF19C0F3FF1A50CDECA8
:100600001DF00D50010F0C6E000E19200E6E000E25
:100610001A20E56A0CC0E9FF0EC0F3FFCDEC1DF017
:100620000DC00CF019C00EF01AC00FF013C010F07E
:10063000105011E00CC0E9FF0EC0F3FF0F5098EC12
:100640001DF0176E175007E00C2AD8B00E2AD8B04C
:100650000F2A1006EDD710C013F014501FE109C087
:100660000CF00AC00EF010C00FF00F5011E0155042
:10067000E56E0250E56E0150E56E0050E56EB1EC9E
:1006800016F0040EE1260C2AD8B00E2A0F06EDD77C
:100690000CC009F00EC00AF00FC013F016C00CF029
:1006A0000DC00DF019C00EF01AC00FF009C010F007
:1006B0000AC015F00DC0E9FF0EC0F3FF0F5098EC13
:1006C0001DF0166E1650D8B440D00CC016F0176A44
:1006D000161E171E1650171005E00CC016F00C065B
:1006E000165033E00DC0E9FF0EC0F3FF0F5098EC39
:1006F0001DF0116E125010E01150E56E6BEC1DF004
:10070000166EE12A165004E0DF0E1114166E02D0A8
:1007100011C016F016C011F01150E56E0250E56ED2
:100720000150E56E0050E56EB1EC16F0040EE126C6
:100730000D2AD8B00E2AD8B00F2A102AD8B0152A00
:100740001350D8B4B7D71306B5D710C009F015C0E9
:100750000AF014502DE010C00CF015C00DF013C0BD
:100760000EF00E5021E0200EE56E0250E56E0150B5
:10077000E56E0050E56EB1EC16F0040EE1260C2A91
:10078000D8B00D2A0E06EDD70B50E56E0250E56E7F
:100790000150E56E0050E56EB1EC16F0040EE12656
:1007A000092AD8B00A2A04D00CC009F00DC00AF0FA
:1007B000032AD8B0042AD8B0052A7EEF00F00AC078
:1007C000F3FF0950E4CF1EF0E4CF1DF0E4CF1CF09E
:1007D000E4CF1BF0E4CF1AF0E4CF19F0E4CF18F027
:1007E000E4CF17F0E4CF16F0E4CF15F0E4CF14F027
:1007F000E4CF13F0E4CF12F0E4CF11F0E4CF10F027
:10080000E4CF0FF0E4CF0EF0E4CF0DF0E4CF0CF026
:10081000E4CF0BF0E4CF0AF0E4CF09F0E4CF08F026
:10082000E4CF07F0E4CF06F0E4CF05F0E4CF04F026
:10083000E4CF03F0E4CF02F0E4CF01F0E4CF00F026
:10084000E4CFD9FF12003C4E4F20464C4F41543E5E
:100850000000D9CFE5FFE1CFD9FF00C0E5FF01C01F
:10086000E5FF02C0E5FF03C0E5FF04C0E5FF05C0EA
:10087000E5FF06C0E5FF07C0E5FF08C0E5FF09C0CA
:10088000E5FF0AC0E5FF0BC0E5FF0CC0E5FF0DC0AA
:10089000E5FF0EC0E5FF010E0F01505DD8A0D6EFB9
:1008A00006F00C0E0F01505DD8B0D6EF06F00F0128
:1008B0005005006E0FC0E5FF10C0E5FF106A003460
:1008C0001036E8341036FC0B0F6E000EFB6E080E6F
:1008D000FA6EEA0E0F261050FA22D8B0FB2A0F50FB
:1008E000E4CF10F0E4CF0FF0F96E8BEF04F0A3EF3C
:1008F00004F0D0EF04F0FCEF04F028EF05F03FEF38
:1009000005F070EF05F095EF05F0BAEF05F023EF75
:1009100006F04FEF06F00F0E016E210E006E800EF6
:10092000026E000EE56E1C0EE56ED40EE56E0250F2
:10093000E56E0150E56E0050E56E21EC18F0060EF4
:10094000E126ECEF06F048CF00F0016A47CF02F055
:10095000036A46CF04F0056A0F0E076E210E066E7D
:10096000800E086E0150E56E0050E56E0350E56E96
:100970000250E56E0550E56E0450E56E000EE56E22
:100980001C0EE56EF60EE56E0850E56E0750E56E3E
:100990000650E56E21EC18F00C0EE126ECEF06F0A7
:1009A00048CF00F0016A47CF02F0036A46CF04F057
:1009B000056A0F0E076E210E066E800E086E01503E
:1009C000E56E0050E56E0350E56E0250E56E055091
:1009D000E56E0450E56E000EE56E1D0EE56E1E0E12
:1009E000E56E0850E56E0750E56E0650E56E21ECA9
:1009F00018F00C0EE126F0D148CF00F0016A47CF85
:100A000002F0036A46CF04F0056A0F0E076E210E4E
:100A1000066E800E086E0150E56E0050E56E0350C4
:100A2000E56E0250E56E0550E56E0450E56E000E71
:100A3000E56E1D0EE56E460EE56E0850E56E07503C
:100A4000E56E0650E56E21EC18F00C0EE126C4D1DF
:100A50000F0E016E210E006E800E026E000EE56E0E
:100A60001D0EE56E6E0EE56E0250E56E0150E56EF0
:100A70000050E56E21EC18F0060EE126ADD10F0115
:100A80004D5117E00F0E016E210E006E800E026EAA
:100A9000000EE56E1D0EE56E900EE56E0250E56EE1
:100AA0000150E56E0050E56E21EC18F0060EE126CF
:100AB00093D10F0E016E210E006E800E026E000E9D
:100AC000E56E1D0EE56EB20EE56E0250E56E01504C
:100AD000E56E0050E56E21EC18F0060EE1267CD1A3
:100AE0004ACF00F0016A49CF02F0036A0F0E056E8B
:100AF000210E046E800E066E0150E56E0050E56E0C
:100B00000350E56E0250E56E000EE56E1D0EE56EBB
:100B1000D40EE56E0650E56E0550E56E0450E56EA8
:100B200021EC18F00A0EE12657D14ACF00F0016AF5
:100B300049CF02F0036A0F0E056E210E046E800E7F
:100B4000066E0150E56E0050E56E0350E56E0250F2
:100B5000E56E000EE56E1D0EE56EFA0EE56E0650B2
:100B6000E56E0550E56E0450E56E21EC18F00A0EB6
:100B7000E12632D10F014D513AE04ACF00F0016A2F
:100B800049CF02F0036A48CF04F0056A47CF06F068
:100B9000076A46CF08F0096A0F0E0B6E210E0A6E27
:100BA000800E0C6E0150E56E0050E56E0350E56E50
:100BB0000250E56E0550E56E0450E56E0750E56E97
:100BC0000650E56E0950E56E0850E56E000EE56EC4
:100BD0001E0EE56E200EE56E0C50E56E0B50E56EB8
:100BE0000A50E56E21EC18F0100EE126F5D048CF42
:100BF00000F0016A47CF02F0036A46CF04F0056AAD
:100C00000F0E076E210E066E800E086E0150E56E07
:100C10000050E56E0350E56E0250E56E0550E56E3E
:100C20000450E56E000EE56E1E0EE56E4C0EE56E90
:100C30000850E56E0750E56E0650E56E21EC18F0A1
:100C40000C0EE126C9D048CF00F0016A47CF02F070
:100C5000036A46CF04F0056A0F0E076E210E066E7A
:100C6000800E086E0150E56E0050E56E0350E56E93
:100C70000250E56E0550E56E0450E56E000EE56E1F
:100C80001E0EE56E740EE56E0850E56E0750E56EBB
:100C90000650E56E21EC18F00C0EE1269DD00A0EF0
:100CA0000F014E5DD8B041D04CCF00F0016A4BCF60
:100CB00002F0036A4ECF04F0056A48CF06F0076AD7
:100CC00047CF08F0096A46CF0AF00B6A0F0E0D6E87
:100CD000210E0C6E800E0E6E0150E56E0050E56E1A
:100CE0000350E56E0250E56E0550E56E0450E56E6A
:100CF0000750E56E0650E56E0950E56E0850E56E4A
:100D00000B50E56E0A50E56E000EE56E1E0EE56EA8
:100D10009C0EE56E0E50E56E0D50E56E0C50E56EC6
:100D200021EC18F0120EE12657D04CCF00F0016AEA
:100D30004BCF02F0036A4ECF04F0056A48CF06F0AD
:100D4000076A47CF08F0096A46CF0AF00B6A0F0E10
:100D50000D6E210E0C6E800E0E6E0150E56E005071
:100D6000E56E0350E56E0250E56E0550E56E0450E9
:100D7000E56E0750E56E0650E56E0950E56E0850C9
:100D8000E56E0B50E56E0A50E56E000EE56E1E0E28
:100D9000E56EC80EE56E0E50E56E0D50E56E0C501A
:100DA000E56E21EC18F0120EE12616D00F0E016E42
:100DB000210E006E800E026E000EE56E1E0EE56EB8
:100DC000F40EE56E0250E56E0150E56E0050E56EE2
:100DD00021EC18F0060EE1260F0E016E210E006EBA
:100DE000800E026E0250E56E0150E56E0050E56E19
:100DF000000EE56E08EC19F0040EE126E4CF0EF0CB
:100E0000E4CF0DF0E4CF0CF0E4CF0BF0E4CF0AF028
:100E1000E4CF09F0E4CF08F0E4CF07F0E4CF06F028
:100E2000E4CF05F0E4CF04F0E4CF03F0E4CF02F028
:100E3000E4CF01F0E4CF00F0E4CFD9FF1200D9CF26
:100E4000E5FFE1CFD9FF00C0E5FF01C0E5FF02C02B
:100E5000E5FF03C0E5FF0F015251D8B47CD0010E6D
:100E60000F01505DD8A074D00C0E0F01505DD8B0AA
:100E70006FD00F015005006E04C0E5FF05C0E5FF0F
:100E8000056A00340536E8340536FC0B046E000EA6
:100E9000FB6E0E0EFA6EAE0E04260550FA22D8B086
:100EA000FB2A0450E4CF05F0E4CF04F0F96E6DEFB7
:100EB00007F071EF07F075EF07F079EF07F07DEFBE
:100EC00007F081EF07F085EF07F089EF07F08DEF6E
:100ED00007F091EF07F09AEF07F0050E0F01506F42
:100EE00037D0030E0F01506F33D0040E0F01506F37
:100EF0002FD0050E0F01506F2BD0090E0F01506F30
:100F000027D0070E0F01506F23D0080E0F01506F2E
:100F10001FD0090E0F01506F1BD0010E0F01506F33
:100F200017D0010E0F014F6F91929194090E0F018E
:100F3000506F0ED0010E0F014F6F4CCF4AFF4BCFB9
:100F400049FF0F014E6B91929194090E0F01506F62
:100F50000F01526B5AD10F015351D8B456D1010E23
:100F60000F01505DD8A04FD10C0E0F01505DD8B0CD
:100F70004AD10F015005006E04C0E5FF05C0E5FF32
:100F8000056A00340536E8340536FC0B046E000EA5
:100F9000FB6E0F0EFA6EAE0E04260550FA22D8B084
:100FA000FB2A0450E4CF05F0E4CF04F0F96EEDEF36
:100FB00007F0F1EF07F038EF08F07FEF08F0C6EF29
:100FC00008F0CAEF08F0CEEF08F0DAEF08F0E6EF2D
:100FD00008F0E7EF08F0F8EF08F0020E0F01506F8D
:100FE00012D10F014551E56E0F014451E56E0F011D
:100FF0004351E56E0F014251E56ED4EC14F0006EE2
:10100000F3CF01F0F4CF02F0E9CF03F0040EE126B4
:10101000480EE56EA70EE56EA20EE56E800EE56E3B
:101020000350E56E0250E56E0150E56E0050E56E2E
:1010300010EC09F0006EF3CF01F0F4CF02F0E9CF2D
:1010400003F0080EE1260350E56E0250E56E0150F4
:10105000E56E0050E56EABEC17F00F01426FF3CF79
:1010600043FFF4CF44FFE9CF45FF040EE126CBD088
:101070000F014551E56E0F014451E56E0F014351DB
:10108000E56E0F014251E56ED4EC14F0006EF3CF23
:1010900001F0F4CF02F0E9CF03F0040EE126450E93
:1010A000E56EB20EE56ECF0EE56E770EE56E03507F
:1010B000E56E0250E56E0150E56E0050E56E10ECF5
:1010C00009F0006EF3CF01F0F4CF02F0E9CF03F0A6
:1010D000080EE1260350E56E0250E56E0150E56E04
:1010E0000050E56EABEC17F00F01426FF3CF43FFFA
:1010F000F4CF44FFE9CF45FF040EE12684D00F0171
:101100004551E56E0F014451E56E0F014351E56E07
:101110000F014251E56ED4EC14F0006EF3CF01F0F4
:10112000F4CF02F0E9CF03F0040EE126420EE56EA3
:10113000BE0EE56EBB0EE56E2A0EE56E0350E56E43
:101140000250E56E0150E56E0050E56E10EC09F0BE
:10115000006EF3CF01F0F4CF02F0E9CF03F0080EF8
:10116000E1260350E56E0250E56E0150E56E005039
:10117000E56EABEC17F00F01426FF3CF43FFF4CFF6
:1011800044FFE9CF45FF040EE1263DD0060E0F01D6
:10119000506F39D0010E0F014D1B35D00F01495151
:1011A000170A03E10F01496B02D00F01492B49CF08
:1011B0004BFF29D00F014A513B0A03E10F014A6B53
:1011C00002D00F014A2B4ACF4CFF1DD01CD00C0E71
:1011D0000F014E5D18E2050EE56E45EC1BF0E12AAD
:1011E0000F014E2B919291940B0E0F01506F0BD06B
:1011F0000C0E0F014E5D07E2050EE56E45EC1BF08F
:10120000E12A0F014E2B0F01536BE4CF03F0E4CF23
:1012100002F0E4CF01F0E4CF00F0E4CFD9FF1200F8
:10122000D9CFE5FFE1CFD9FF00C0E5FF01C0E5FF61
:1012300002C0E5FF03C0E5FF04C0E5FF05C0E5FF10
:1012400006C0E5FF07C0E5FF08C0E5FF09C0E5FFF0
:101250000AC0E5FF0BC0E5FF0CC0E5FF0DC0E5FFD0
:101260000EC0E5FF0FC0E5FF10C0E5FF020EDBCFAB
:1012700000F0030EDBCF01F0040EDBCF02F0050E11
:10128000DBCF03F0060EDBCF04F0070EDBCF05F05B
:10129000080EDBCF06F0090EDBCF07F0086A096AFB
:1012A0000A6A0B6A00500E01416F0150426F0250F2
:1012B000436F0350446F04500E01456F0550466F55
:1012C0000650476F0750486F0E01415142114311BC
:1012D000441109E148CEE9FF47CEF4FF46CEF3FFC3
:1012E0000E01455140D10E0145514611471148119B
:1012F00009E144CEE9FF43CEF4FF42CEF3FF0E01F5
:10130000415131D10E0143354435006E016A013639
:10131000026A036A016A026A036A0E0147354835A8
:10132000026E190F046E000E0320800FF36E015041
:10133000800FF35C02E10050045C09E244CEE9FF57
:1013400043CEF4FF42CEF3FF0E0141510CD10050C9
:10135000190F046E000E0120800FF36E0350800FF2
:10136000F35C02E10250045C09E248CEE9FF47CE9B
:10137000F4FF46CEF3FF0E014551F5D00E01415169
:10138000046E4251056E7F0E4315066E076A068E87
:101390000E0145510C6E46510D6E7F0E47150E6EB7
:1013A0000F6A0E8E0E014445010B106E10A00AD07C
:1013B000071E061E051E046C05E1052A03E1062A28
:1013C000D8B4072A0E014845010B106E10A00AD0B0
:1013D0000F1E0E1E0D1E0C6C05E10D2A03E10E2AD8
:1013E000D8B40F2A0350800FF36E0150800FF35CC6
:1013F00002E10050025C1BE20250005C106E0350E0
:101400000158105032E00BE6E86CD8900FBED8803F
:101410000F320E320D320C32010FF8E326D0D89085
:101420000C360D360E360F36010FFAE31ED0005083
:10143000025C106E01500358105013E00BE6E86C8C
:10144000D89007BED8800732063205320432010F29
:10145000F8E307D0D8900436053606360736010F74
:10146000FAE302C000F003C001F00C5004260D5056
:1014700005220E5006220F500722D88007AED890C2
:1014800010E3071E061E051E046C05E1052A03E194
:10149000062AD8B4072A086A096A0A6A800E0B6EFF
:1014A0000AD0045005100610071005E1E96AF46A35
:1014B000F36AE86A58D004C002F005C003F006C021
:1014C0000CF007C00DF0000E0D5C08E1800E0C5C06
:1014D00005E1000E035C02E1000E025C0AE204502A
:1014E0000426053606360736FF0E0026D8A001066C
:1014F000E2D7075011E004A006D0020E0426000E29
:10150000052206220722073407320632053204324A
:10151000002AD8B0012AEDD7069EE86A01300030D3
:101520000F6E0E6A0E320C6A0C50081209120E5021
:101530000A120F500B1208500412095005120A50DB
:1015400006120B50071204500E01416F0550426FF6
:101550000650436F0750446F44CEE9FF43CEF4FF7B
:1015600042CEF3FF4151E4CF10F0E4CF0FF0E4CFCF
:101570000EF0E4CF0DF0E4CF0CF0E4CF0BF0E4CFAD
:101580000AF0E4CF09F0E4CF08F0E4CF07F0E4CFAD
:1015900006F0E4CF05F0E4CF04F0E4CF03F0E4CFAD
:1015A00002F0E4CF01F0E4CF00F0E4CFD9FF120065
:1015B000D9CFE5FFE1CFD9FF00C0E5FF01C0E5FFCE
:1015C00002C0E5FF03C0E5FF04C0E5FF05C0E5FF7D
:1015D00006C0E5FF07C0E5FF0F014551E56E0F01AD
:1015E0004451E56E0F014351E56E0F014251E56E26
:1015F000D4EC14F0006EF3CF01F0F4CF02F0E9CF99
:1016000003F0040EE126420EE56EBE0EE56EBB0E43
:10161000E56E2A0EE56E0350E56E0250E56E015050
:10162000E56E0050E56E97EC0CF0006EF3CF01F024
:10163000F4CF02F0E9CF03F0080EE1260350E56E87
:101640000250E56E0150E56E0050E56EABEC17F010
:101650000F01556FF3CF56FFF4CF57FFE9CF58FF77
:10166000040EE1260F014551E56E0F014451E56E70
:101670000F014351E56E0F014251E56E000EE56E1C
:10168000000EE56E000EE56E0A0EE56EEEEC11F052
:10169000006EF3CF01F0F4CF02F0E9CF03F0080EB3
:1016A000E1260350E56E0250E56E0150E56E0050F4
:1016B000E56ED4EC14F0006EF3CF01F0F4CF02F03D
:1016C000E9CF03F0040EE126420EE56EBE0EE56E94
:1016D000BB0EE56E2A0EE56E0350E56E0250E56E18
:1016E0000150E56E0050E56E97EC0CF0006EF3CF04
:1016F00001F0F4CF02F0E9CF03F0080EE126035029
:10170000E56E0250E56E0150E56E0050E56EABEC03
:1017100017F00F01596FF3CF5AFFF4CF5BFFE9CFFA
:101720005CFF040EE126000EE56E000EE56E000E75
:10173000E56E0A0EE56E0F015C51E56E0F015B511F
:10174000E56E0F015A51E56E0F015951E56E92ECAD
:1017500015F0006EF3CF01F0F4CF02F0E9CF03F003
:10176000080EE12600500E01596F000EE56E000EC6
:10177000E56E0E0EE56E100EE56E0F015851E56E2A
:101780000F015751E56E0F015651E56E0F0155518E
:10179000E56E24EC16F0006EF3CF01F0F4CF02F00A
:1017A000E9CF03F0080EE126000EE56E000EE56EAF
:1017B000000EE56E180EE56E0350E56E0250E56E04
:1017C0000150E56E0050E56E92EC15F0046EF3CF1B
:1017D00005F0F4CF06F0E9CF07F0080EE12604503B
:1017E0000E015A6F0350E56E0250E56E0150E56E32
:1017F0000050E56E000EE56E000EE56E0E0EE56E15
:10180000100EE56EEEEC11F0006EF3CF01F0F4CFA8
:1018100002F0E9CF03F0080EE12600500F01555DFC
:10182000006E01500F015659016E02500F015759B9
:10183000026E03500F015859036E000EE56E000E44
:10184000E56E000EE56E3C0EE56E0350E56E02504F
:10185000E56E0150E56E0050E56E24EC16F0006E6A
:10186000F3CF01F0F4CF02F0E9CF03F0080EE12648
:1018700000500E015B6F0F015551006E0E015A5161
:10188000100DF3CF01F00150005E0E015B513C0DD5
:10189000F3CF01F00150005C0E015C6F0F01485165
:1018A0000E015C1902E05CCE48FF0F0147510E01AA
:1018B0005B1902E05BCE47FF0F0146510E015A193A
:1018C00002E05ACE46FF0F0151510EE1050E0E0106
:1018D000595D0AE291800F0150510A0A02E191829A
:1018E0009184010E0F01516F0F0151510DE0050E52
:1018F0000E01595D09E391900F0150510A0A02E16E
:10190000919291940F01516BE4CF07F0E4CF06F070
:10191000E4CF05F0E4CF04F0E4CF03F0E4CF02F02D
:10192000E4CF01F0E4CF00F0E4CFD9FF1200D9CF2B
:10193000E5FFE1CFD9FF00C0E5FF01C0E5FF02C030
:10194000E5FF03C0E5FF04C0E5FF05C0E5FF06C0F5
:10195000E5FF07C0E5FF08C0E5FF09C0E5FF0AC0D5
:10196000E5FF0BC0E5FF0CC0E5FF0DC0E5FF0EC0B5
:10197000E5FF0FC0E5FF10C0E5FF11C0E5FF12C095
:10198000E5FF020EDBCF00F0030EDBCF01F0040E0B
:10199000DBCF02F0050EDBCF03F0060EDBCF04F049
:1019A000070EDBCF05F0080EDBCF06F0090EDBCF0C
:1019B00007F000500E014D6F01504E6F02504F6FF7
:1019C0000350506F04500E01516F0550526F065076
:1019D000536F0750546F0E014F355035006E016A3A
:1019E0000136026A036A016A026A036A0E0153350C
:1019F000543500C006F0076A065C026E03500758B3
:101A0000036E0250006E0350016E7E0E0026D8B0A9
:101A1000012A0E015045010B026E010E02160E0145
:101A20005445010B066E010E06160650021A51515E
:101A30005211531154110EE1516B526BC00E536F82
:101A40007F0E546F54CEE9FF53CEF4FF52CEF3FF16
:101A50005151DED00E014D514E114F11501105E183
:101A6000E96AF46AF36AE86AD3D00E014D51036E55
:101A70004E51046E7F0E4F15056E066A058E0E01DF
:101A80005151076E5251086E7F0E5315096E0A6A46
:101A9000098E0650800FF36E0A50800FF35C08E148
:101AA0000950055C05E10850045C02E10750035C45
:101AB00009E203500326043605360636FF0E0026DB
:101AC000D8A001060B6A0C6A0D6A010E0E6E0F6A31
:101AD000106A116A126A0B500C100D100E102BE0D8
:101AE0000650800FF36E0A50800FF35C08E1095036
:101AF000055C05E10850045C02E10750035C10E35B
:101B00000B500F120C5010120D5011120E501212D9
:101B10000750035E0850045A0950055A0A50065AE5
:101B200003500326043605360636D8900E320D32A1
:101B30000C320B32D0D70F2AD8B0102AD8B0112AC5
:101B4000D8B0122A002AD8B0012A12341232113227
:101B500010320F32119E0150800F7F0F02E1000EF4
:101B6000005C19E3025006E0036A046A056A800E0D
:101B7000066E04D0036A046A056A066A058E7F0E43
:101B8000061203500E014D6F04504E6F05504F6FFB
:101B90000650506F35D0D88001AED89006E30E01C4
:101BA0004D6B4E6B4F6B506B2BD0025006E0026AB0
:101BB000036A046A800E056E04D0026A036A046A2E
:101BC000056AE86A013000300B6E0A6A0A32086A58
:101BD0000850021203120A5004120B500512025050
:101BE0000F120350101204501112055012120F5010
:101BF0000E014D6F10504E6F11504F6F1250506FBD
:101C000050CEE9FF4FCEF4FF4ECEF3FF0E014D5103
:101C1000E4CF12F0E4CF11F0E4CF10F0E4CF0FF0F6
:101C2000E4CF0EF0E4CF0DF0E4CF0CF0E4CF0BF0F6
:101C3000E4CF0AF0E4CF09F0E4CF08F0E4CF07F0F6
:101C4000E4CF06F0E4CF05F0E4CF04F0E4CF03F0F6
:101C5000E4CF02F0E4CF01F0E4CF00F0E4CFD9FF0D
:101C60001200E8CFE5FFD8CFE5FFE0CFE5FFF3CFE7
:101C7000E5FFF4CFE5FFE9CFE5FFEACFE5FFFACFD7
:101C8000E5FFFBCFE5FFD9CFE5FFE1CFD9FFF2A418
:101C90000CD00F01422B02E30F01432B02E30F0193
:101CA000442B02E30F01452BF294E4CFD9FFE4CF9C
:101CB000FBFFE4CFFAFFE4CFEAFFE4CFE9FFE4CF94
:101CC000F4FFE4CFF3FFE4CFE0FFE4CFD8FFE4CFAD
:101CD000E8FF1000446F20796F752077616E7420E3
:101CE000746F2020736574207468652074696D6555
:101CF000203F20200000205B253032755D3A2025F2
:101D0000303275203A2025303275202020202020C6
:101D10002020202020202020202020200000202003
:101D200025303275203A5B253032755D3A202530FA
:101D3000327520202020202020202020202020203C
:101D4000202020200000202025303275203A202538
:101D5000303275203A5B253032755D2020202020FE
:101D60002020202020202020202020200000446F40
:101D700020796F752077616E7420746F20207365F1
:101D8000742074686520616C61726D203F200000D2
:101D90002020416C61726D205B4F4E205D20202021
:101DA0002020202020202020202020202020202033
:101DB00000002020416C61726D205B4F46465D2023
:101DC0002020202020202020202020202020202013
:101DD0002020000020202020416C61726D20617461
:101DE00020202020202020205B253032755D3A20E5
:101DF0002530327520202020000020202020416C3A
:101E000061726D2061742020202020202020202558
:101E1000303275203A5B253032755D20202000007D
:101E200020202020253032753A253032753A253071
:101E3000327520202020416C61726D204F4E202091
:101E4000253032753A2530327520000020202020C0
:101E5000253032753A253032753A253032752020DA
:101E60002020202020416C61726D20204F464620AA
:101E70002020000020202020253032753A253032E5
:101E8000753A253032752020202020204920616DB0
:101E90002072696E67696E67212000002020202073
:101EA000253032753A253032753A2530327520208A
:101EB0002020536E6F6F7A652025752020253032E3
:101EC000753A2530327520002020202025303275CB
:101ED0003A253032753A2530327520202020536E55
:101EE0006F6F7A6520257520253032753A2530329E
:101EF000752000002A2A2A2A204552524F52202AB1
:101F00002A2A2A2A2A2A2A2A204552524F52202A8D
:101F10002A2A2A2A0000D9CFE5FFE1CFD9FF00C045
:101F2000E5FF01C0E5FF02C0E5FF03C0E5FF04C017
:101F3000E5FF05C0E5FF06C0E5FF07C0E5FF08C0F7
:101F4000E5FF020EE56E000EE56ED3EC1CF0020E0E
:101F5000E126480E006E0D0E016E026A036A00C093
:101F600004F001C005F002C006F003C007F0FF0E48
:101F70000026FF0E0122FF0E0222FF0E0322045054
:101F8000051006100710EBE1006A00C001F0026ABC
:101F9000000E025C02E1100E015CD8B057D0000EBA
:101FA0000024016E026A0F0E022201C0E9FF02C086
:101FB000EAFFEFCF01F0015019E100C001F001C0CC
:101FC00002F0036A000E035C02E1100E025C0EE2F6
:101FD000000E0124026E036A0F0E032202C0E9FF05
:101FE00003C0EAFF200EEF6E012AE9D7000E00249D
:101FF000016E026A0F0E022201C0E9FF02C0EAFF71
:10200000EFCF01F00150E56E010EE56ED3EC1CF050
:10201000020EE126550E016E026A036A046A01C0CF
:1020200005F002C006F003C007F004C008F0FF0E80
:102030000126FF0E0222FF0E0322FF0E042205508E
:10204000061007100810EBE1002A9FD7C00EE56EBE
:10205000000EE56ED3EC1CF0020EE126550E006E6C
:10206000016A026A036A00C004F001C005F002C000
:1020700006F003C007F0FF0E0026FF0E0122FF0E40
:102080000222FF0E03220450051006100710EBE198
:10209000100E006E00C001F0026A000E025C02E148
:1020A000200E015CD8B057D0000E0024016E026AE9
:1020B0000F0E022201C0E9FF02C0EAFFEFCF01F0DC
:1020C000015019E100C001F001C002F0036A000EE6
:1020D000035C02E1200E025C0EE2000E0124026E9F
:1020E000036A0F0E032202C0E9FF03C0EAFF200EBD
:1020F000EF6E012AE9D7000E0024016E026A0F0E6E
:10210000022201C0E9FF02C0EAFFEFCF01F0015057
:10211000E56E010EE56ED3EC1CF0020EE126550EC5
:10212000016E026A036A046A01C005F002C006F08B
:1021300003C007F004C008F0FF0E0126FF0E0222C4
:10214000FF0E0322FF0E0422055006100710081090
:10215000EBE1002A9FD7E4CF08F0E4CF07F0E4CF0B
:1021600006F0E4CF05F0E4CF04F0E4CF03F0E4CFD1
:1021700002F0E4CF01F0E4CF00F0E4CFD9FF120089
:10218000D9CFE5FFE1CFD9FF00C0E5FF01C0E5FFF2
:1021900002C0E5FF03C0E5FF04C0E5FF05C0E5FFA1
:1021A00006C0E5FF07C0E5FF08C0E5FF000EE56ECD
:1021B000200EE56E200EE56E0F0EE56E000EE56E4C
:1021C00073EC19F0050EE1260F01206B90909092B0
:1021D000966A999299949990A00E006E090E016EDC
:1021E000010E026E036A00C004F001C005F002C0D7
:1021F00006F003C007F0FF0E0026FF0E0122FF0EBF
:102200000222FF0E03220450051006100710EBE116
:102210009094030E8D6E00000000006A00C001F073
:10222000026A000E025C02E1030E015C39E290805A
:10223000110E016E026A036A046A01C005F002C051
:1022400006F003C007F004C008F0FF0E0126FF0EE1
:102250000222FF0E0322FF0E042205500610071073
:102260000810EBE19090480E016E0D0E026E036AAD
:10227000046A01C005F002C006F003C007F004C004
:1022800008F0FF0E0126FF0E0222FF0E0322FF0EB2
:1022900004220550061007100810EBE1002ABED7F3
:1022A000380EE56E000EE56ED3EC1CF0020EE12652
:1022B000550E006E016A026A036A00C004F001C094
:1022C00005F002C006F003C007F0FF0E0026FF0E67
:1022D0000122FF0E0222FF0E0322045005100610F9
:1022E0000710EBE1060EE56E000EE56ED3EC1CF078
:1022F000020EE126550E006E016A026A036A00C0F2
:1023000004F001C005F002C006F003C007F0FF0EA4
:102310000026FF0E0122FF0E0222FF0E03220450B0
:10232000051006100710EBE10C0EE56E000EE56ED1
:10233000D3EC1CF0020EE126550E006E016A026A13
:10234000036A00C004F001C005F002C006F003C03B
:1023500007F0FF0E0026FF0E0122FF0E0222FF0EE5
:1023600003220450051006100710EBE1010EE56E84
:10237000000EE56ED3EC1CF0020EE126480E006E56
:102380000D0E016E026A036A00C004F001C005F080
:1023900002C006F003C007F0FF0E0026FF0E012268
:1023A000FF0E0222FF0E0322045005100610071034
:1023B000EBE1E4CF08F0E4CF07F0E4CF06F0E4CFA0
:1023C00005F0E4CF04F0E4CF03F0E4CF02F0E4CF73
:1023D00001F0E4CF00F0E4CFD9FF1200D9CFE5FF40
:1023E000E1CFD9FF00C0E5FF01C0E5FF02C0E5FF76
:1023F00003C0E5FF04C0E5FF05C0E5FF06C0E5FF3B
:1024000007C0E5FF020EDBCF00F0030EDBCF01F0CB
:10241000040EDBCF02F0050EDBCF03F0060EDBCFA0
:1024200004F0070EDBCF05F0080EDBCF06F0090E37
:10243000DBCF07F000500E012D6F01502E6F0250C0
:102440002F6F0350306F04500E01316F0550326F03
:102450000650336F0750346F0E012D510E013303B8
:10246000F3CF00F0F4CF01F000500E01376F0150B0
:10247000386F0E012D510E013103F3CF00F0F4CF70
:1024800001F000500E01356F0150366F0E013051D2
:102490000E013103F3CF00F00E0138510026005039
:1024A000386F0E012F510E013203F3CF00F00E01F1
:1024B000385100260050386F0E012F510E013103A4
:1024C000F3CF00F0F4CF01F00E0137510026385160
:1024D00001220050376F0150386F0E012E510E014E
:1024E0003203F3CF00F0F4CF01F00E013751002694
:1024F000385101220050376F0150386F0E012E51B4
:102500000E013303F3CF00F000500E013C6F0E01BB
:102510002E510E013103F3CF00F0F4CF01F0005043
:102520000E013A6F01503B6F0E012D510E01340325
:10253000F3CF00F000500E01406F0E012D510E013F
:102540003203F3CF00F0F4CF01F000500E013E6FE4
:1025500001503F6F0E01396B0E013D6B0E01395179
:102560000E013525006E0E013A510E013621016E25
:102570000E013B510E013721026E0E013C510E013E
:102580003821036E0050356F0150366F0250376F9F
:102590000350386F0E013D510E013525006E0E01BE
:1025A0003E510E013621016E0E013F510E013721C1
:1025B000026E0E0140510E013821036E03C0E9FF87
:1025C00002C0F4FF01C0F3FF0050E4CF07F0E4CFF6
:1025D00006F0E4CF05F0E4CF04F0E4CF03F0E4CF5D
:1025E00002F0E4CF01F0E4CF00F0E4CFD9FF120015
:1025F000D9CFE5FFE1CFD9FF00C0E5FF01C0E5FF7E
:1026000002C0E5FF03C0E5FF04C0E5FF05C0E5FF2C
:1026100006C0E5FF07C0E5FF08C0E5FF09C0E5FF0C
:102620000AC0E5FF0BC0E5FF0CC0E5FF0DC0E5FFEC
:102630000EC0E5FF0FC0E5FF10C0E5FF11C0E5FFCC
:1026400012C0E5FF13C0E5FF14C0E5FF15C0E5FFAC
:10265000020EDBCF00F0030EDBCF01F0040EDBCF68
:1026600002F0050EDBCF03F0060EDBCF04F0070E01
:10267000DBCF05F0080EDBCF06F0090EDBCF07F04D
:1026800000C008F001C009F002C00AF003C00BF05E
:1026900004C00CF005C00DF006C00EF007C00FF02E
:1026A00006500710D8B43ED003C010F004C011F09B
:1026B00005C012F006C013F007C014F0FF0E132679
:1026C000D8A01406135014101DE010C0E9FF11C06B
:1026D000F3FF125098EC1DF0156E102AD8B0112A95
:1026E000D8B0122A15C0E5FF00C0E9FF01C0F3FF12
:1026F0000250CDEC1DF0002AD8B0012AD8B0022A31
:102700001550DCE110C00BF011C00CF012C00DF040
:1027100000C008F001C009F002C00AF013C00EF0BA
:1027200014C00FF00E500F1027E10650071009E0FB
:10273000000EE56E08C0E9FF09C0F3FF0A50CDECBA
:102740001DF00BC000F00CC001F00DC002F000C085
:10275000E9FF01C0F3FF025098EC1DF0066E002A5D
:10276000D8B0012AD8B0022A0650F1E100C00BF01F
:1027700001C00CF002C00DF003500B5C036E04505E
:102780000C58046EFF0E0326D8A0040604C0F3FF05
:102790000350E4CF15F0E4CF14F0E4CF13F0E4CF0E
:1027A00012F0E4CF11F0E4CF10F0E4CF0FF0E4CF5B
:1027B0000EF0E4CF0DF0E4CF0CF0E4CF0BF0E4CF5B
:1027C0000AF0E4CF09F0E4CF08F0E4CF07F0E4CF5B
:1027D00006F0E4CF05F0E4CF04F0E4CF03F0E4CF5B
:1027E00002F0E4CF01F0E4CF00F0E4CFD9FF120013
:1027F000D9CFE5FFE1CFD9FF00C0E5FF01C0E5FF7C
:1028000002C0E5FF03C0E5FF04C0E5FF05C0E5FF2A
:1028100006C0E5FF07C0E5FF08C0E5FF09C0E5FF0A
:102820000AC0E5FF0BC0E5FF0CC0E5FF0DC0E5FFEA
:102830000EC0E5FF0FC0E5FF020EDBCF00F0030E78
:10284000DBCF01F0040EDBCF02F0050EDBCF03F08F
:10285000060EDBCF04F0070EDBCF05F0080EDBCF52
:1028600006F0200E076E086A06C009F00A6A0B6AB5
:102870000C6AE56AE56AE56A0950E56E0350E56EA3
:102880000250E56E0150E56E0050E56E92EC15F0D9
:102890000D6E080EE126300E0D263A0E0D5C02E399
:1028A000270E0D26FF0E0726D8A00806000E0724C7
:1028B0000E6E0E0E08200F6E0EC0E9FF0FC0EAFF6D
:1028C0000DC0EFFF0C50E56E0B50E56E0A50E56E43
:1028D0000950E56E0350E56E0250E56E0150E56E5D
:1028E0000050E56E24EC16F0006EF3CF01F0F4CF4B
:1028F00002F0E9CF03F0080EE126005001100210AB
:102900000310D8A4B1D707C000F008C001F004C07C
:1029100002F005C003F000C004F001C005F0002A79
:10292000D8B0012A000E04260E0E052204C0E9FFCD
:1029300005C0EAFFEFCF04F002C0E9FF03C0EAFFE1
:1029400004C0EFFF022AD8B0032A000E015C02E1A6
:10295000200E005CE0E302C0E9FF03C0EAFF000EC6
:10296000EF6AE4CF0FF0E4CF0EF0E4CF0DF0E4CF48
:102970000CF0E4CF0BF0E4CF0AF0E4CF09F0E4CFA1
:1029800008F0E4CF07F0E4CF06F0E4CF05F0E4CFA1
:1029900004F0E4CF03F0E4CF02F0E4CF01F0E4CFA1
:1029A00000F0E4CFD9FF1200D9CFE5FFE1CFD9FF86
:1029B00000C0E5FF01C0E5FF02C0E5FF03C0E5FF81
:1029C00004C0E5FF05C0E5FF06C0E5FF07C0E5FF61
:1029D00008C0E5FF09C0E5FF0AC0E5FF0BC0E5FF41
:1029E000020EDBCF00F0030EDBCF01F0040EDBCFD5
:1029F00002F0050EDBCF03F00050011002100310AF
:102A000005E1E96AF46AF36AE86A71D0960E046E29
:102A1000056A035009E0D8900332023201320032D5
:102A2000042AD8B0052AF5D704C006F005C007F07F
:102A3000000E035C08E1800E025C05E1000E015C03
:102A400002E1000E005C19E2005000260136023659
:102A50000336FF0E0426D8A00506000E035C08E12D
:102A6000800E025C05E1000E015C02E1000E005CDC
:102A7000EBE304C006F005C007F00050046E0150FF
:102A8000056E7F0E0214086E096A0450FF0A08E101
:102A90000550FF0A05E108507F0A02E1095001E0F4
:102AA00007D0006A016A026A036A062AD8B0072AB8
:102AB000029EE86A073006300B6E0A6A0A32086A1C
:102AC0000850001201120A5002120B50031200505B
:102AD0000E01496F01504A6F02504B6F03504C6F0B
:102AE0004CCEE9FF4BCEF4FF4ACEF3FF4951E4CF81
:102AF0000BF0E4CF0AF0E4CF09F0E4CF08F0E4CF24
:102B000007F0E4CF06F0E4CF05F0E4CF04F0E4CF23
:102B100003F0E4CF02F0E4CF01F0E4CF00F0E4CF23
:102B2000D9FF1200D9CFE5FFE1CFD9FF00C0E5FF03
:102B300001C0E5FF02C0E5FF03C0E5FF04C0E5FFFB
:102B400005C0E5FF06C0E5FF07C0E5FF08C0E5FFDB
:102B500009C0E5FF0AC0E5FF020EDBCF00F0030E5F
:102B6000DBCF01F0040EDBCF02F0050EDBCF03F06C
:102B7000060EDBCF04F0070EDBCF05F0080EDBCF2F
:102B800006F0090EDBCF07F0086A096A0744010B5B
:102B90000A6E0AB01BD004500426053606360736E6
:102BA0000750035C08E10650025C05E10550015C3A
:102BB00002E10450005C06E2D8900732063205328A
:102BC000043204D0092A09C008F0E0D70750035C9A
:102BD00008E10650025C05E10550015C02E1045089
:102BE000005C08E30450005E0550015A0650025A8A
:102BF0000750035AD890073206320532043208C013
:102C000009F008060950E2E103C0E9FF02C0F4FF41
:102C100001C0F3FF0050E4CF0AF0E4CF09F0E4CFA5
:102C200008F0E4CF07F0E4CF06F0E4CF05F0E4CFFE
:102C300004F0E4CF03F0E4CF02F0E4CF01F0E4CFFE
:102C400000F0E4CFD9FF1200D9CFE5FFE1CFD9FFE3
:102C500000C0E5FF01C0E5FF02C0E5FF03C0E5FFDE
:102C600004C0E5FF05C0E5FF06C0E5FF07C0E5FFBE
:102C700008C0E5FF09C0E5FF0AC0E5FF0BC0E5FF9E
:102C80000CC0E5FF0DC0E5FF020EDBCF00F0030E28
:102C9000DBCF01F0040EDBCF02F0050EDBCF03F03B
:102CA000060EDBCF04F0070EDBCF05F0080EDBCFFE
:102CB00006F0090EDBCF07F0086A096A0A6A0B6A98
:102CC000200E0C6E0344010B0D6E010E0D1600500C
:102CD00000260136023603360850082609360A3621
:102CE0000B360D50D8A4088007500B5C08E1065045
:102CF0000A5C05E10550095C02E10450085C09E347
:102D00000450085E0550095A06500A5A07500B5ADB
:102D100000800C2ED7D703C0E9FF02C0F4FF01C02A
:102D2000F3FF0050E4CF0DF0E4CF0CF0E4CF0BF054
:102D3000E4CF0AF0E4CF09F0E4CF08F0E4CF07F0E5
:102D4000E4CF06F0E4CF05F0E4CF04F0E4CF03F0E5
:102D5000E4CF02F0E4CF01F0E4CF00F0E4CFD9FFFC
:102D60001200D9CFE5FFE1CFD9FF00C0E5FF01C0D8
:102D7000E5FF02C0E5FF03C0E5FF04C0E5FF05C0B5
:102D8000E5FF06C0E5FF07C0E5FF020EDBCF00F060
:102D9000030EDBCF01F0040EDBCF02F0050EDBCF1C
:102DA00003F002C006F00650046E800A28E100C05D
:102DB000E9FF01C0F3FF025050EC1DF0056EF3CFA8
:102DC00006F0F4CF07F003C0E5FF05C0E9FF06C039
:102DD000F3FF0750CDEC1DF0052AD8B0062AD8B075
:102DE000072A05C0E5FF06C0F4FF07C0F6FF00C0D4
:102DF000E9FF01C0F3FF0250A9EC1DF01ED004AAA8
:102E00001CD0200E041A045004E1035006EC00F01C
:102E100014D00450010A04E1035002EC00F00DD07C
:102E200004500F0A04E103500AEC00F006D00450ED
:102E30000E0A03E10350DEEC1DF0E4CF07F0E4CF0F
:102E400006F0E4CF05F0E4CF04F0E4CF03F0E4CFE4
:102E500002F0E4CF01F0E4CF00F0E4CFD9FF12009C
:102E6000D9CFE5FFE1CFD9FF00C0E5FF01C0E5FF05
:102E700002C0E5FF03C0E5FF04C0E5FF05C0E5FFB4
:102E800006C0E5FF07C0E5FF020EDBCF00F0030E32
:102E9000DBCF01F0040EDBCF02F0050EDBCF03F039
:102EA000D88001AED890046A0436045007E0011CB3
:102EB000066E001C056E054A062A04D000C005F007
:102EC00001C006F005C000F006C001F0D88003AED6
:102ED000D890056A0536055007E0031C076E021CF2
:102EE000066E064A072A04D002C006F003C007F0A7
:102EF0000750E56E0650E56E0150E56E0050E56E38
:102F0000F0EC1AF0006EF3CF01F0040EE12605504C
:102F1000041A04500AE0011C036E001C026E024AEF
:102F2000032A03C0F3FF025003D001C0F3FF005097
:102F3000E4CF07F0E4CF06F0E4CF05F0E4CF04F0EF
:102F4000E4CF03F0E4CF02F0E4CF01F0E4CF00F0EF
:102F5000E4CFD9FF1200D9CFE5FFE1CFD9FF00C000
:102F6000E5FF01C0E5FF02C0E5FF03C0E5FF04C0C7
:102F7000E5FF05C0E5FF020EDBCF00F0030EDBCF5F
:102F800001F0040EDBCF02F0050EDBCF03F00050A2
:102F90000E01556F0150566F0250576F0350586F16
:102FA000555156115711581108E05845010B006E44
:102FB000016A026A036A00A005D0E96AF46AF36A4A
:102FC000E86A30D00E0157355835006E016A6A0E36
:102FD0000026FF0E01225551026E5651036E7F0EE0
:102FE0005715046E056A048E011E006CD8B4012AC0
:102FF000005011E009E6E86CD89005320432033243
:103000000232010FFAE307D0D890023603360436B5
:103010000536010FFAE305C0E9FF04C0F4FF03C061
:10302000F3FF0250E4CF05F0E4CF04F0E4CF03F067
:10303000E4CF02F0E4CF01F0E4CF00F0E4CFD9FF19
:103040001200D9CFE5FFE1CFD9FF00C0E5FF01C0F5
:10305000E5FF02C0E5FF03C0E5FF04C0E5FF05C0D2
:10306000E5FF050ED924006E000EDA20016E030E76
:103070000026D8B0012A020EDBCF03F0030EDBCF0F
:1030800004F0040EDBCF05F0800EE56E0150E56E16
:103090000050E56E070EDBCFE5FF060EDBCFE5FF48
:1030A000050EDBCFE5FF0550E56E0450E56E0350DD
:1030B000E56E0EEC00F0006EF3CF01F0090EE12694
:1030C00006C0E5FF07C0E5FF08C0E5FF020EDBCF45
:1030D00006F0030EDBCF07F0040EDBCF08F0005044
:1030E0000624026E01500720036EE86A0820E4CF30
:1030F00008F0E4CF07F0E4CF06F0E56A02C0E9FF8C
:1031000003C0F3FFCDEC1DF001C0F3FF0050E4CF8E
:1031100005F0E4CF04F0E4CF03F0E4CF02F0E4CF15
:1031200001F0E4CF00F0E4CFD9FF1200D9CFE5FFE2
:10313000E1CFD9FF00C0E5FF01C0E5FF02C0E5FF18
:1031400003C0E5FF04C0E5FF05C0E5FF06C0E5FFDD
:10315000020EDBCF00F0030EDBCF01F0040EDBCF5D
:1031600002F0050EDBCF03F0D88001AED890046AE0
:103170000436045007E0011C066E001C056E054A6B
:10318000062A04D000C005F001C006F005C000F01A
:1031900006C001F0D88003AED89007E3031C066E8A
:1031A000021C056E054A062A04D002C005F003C0C1
:1031B00006F00650E56E0550E56E0150E56E0050D4
:1031C000E56E3CEC1AF0006EF3CF01F0040EE12640
:1031D00004500AE0011C036E001C026E024A032A1E
:1031E00003C0F3FF025003D001C0F3FF0050E4CF4F
:1031F00006F0E4CF05F0E4CF04F0E4CF03F0E4CF31
:1032000002F0E4CF01F0E4CF00F0E4CFD9FF1200E8
:10321000D9CFE5FFE1CFD9FF00C0E5FF01C0E5FF51
:1032200002C0E5FF03C0E5FF04C0E5FF05C0E5FF00
:1032300006C0E5FF07C0E5FF020EDBCF00F0030E7E
:10324000DBCF01F0040EDBCF02F0050EDBCF03F085
:103250000350E56E0250E56E0150E56E27EC1CF060
:10326000046EF3CF05F0030EE126042A0050200877
:10327000056E066A000E00260F0E06220650066E28
:103280000050006E800E076E0550045C02E305C01E
:1032900004F0056A0550E56E0450E56E0350E56ED6
:1032A0000250E56E0150E56E0750E56E0650E56E82
:1032B0000050E56EF8EC12F0080EE1268BEC0FF0F2
:1032C000E4CF07F0E4CF06F0E4CF05F0E4CF04F05C
:1032D000E4CF03F0E4CF02F0E4CF01F0E4CF00F05C
:1032E000E4CFD9FF1200D9CFE5FFE1CFD9FF00C06D
:1032F000E5FF01C0E5FF02C0E5FF03C0E5FF04C034
:10330000E5FF05C0E5FF06C0E5FF07C0E5FF08C013
:10331000E5FF09C0E5FF020EDBCF00F0030EDBCFB7
:1033200001F0040EDBCF02F0050EDBCF03F0060E3A
:10333000DBCF04F00150066E0050056E800E076E64
:1033400003C008F004C009F0FF0E0326D8A004064D
:10335000085009100FE002C0E5FF05C0E9FF06C0F4
:10336000F3FF0750CDEC1DF0052AD8B0062AD8B0DF
:10337000072AE6D7800E026E02C0F4FF01C0F3FFF9
:103380000050E4CF09F0E4CF08F0E4CF07F0E4CF39
:1033900006F0E4CF05F0E4CF04F0E4CF03F0E4CF8F
:1033A00002F0E4CF01F0E4CF00F0E4CFD9FF120047
:1033B000D9CFE5FFE1CFD9FF00C0E5FF01C0E5FFB0
:1033C00002C0E5FF03C0E5FF04C0E5FF05C0E5FF5F
:1033D00006C0E5FF020EDBCF00F0030EDBCF01F0ED
:1033E000040EDBCF02F0050EDBCF03F0060EDBCFC1
:1033F00004F0070EDBCF05F0080EDBCF06F0D88017
:1034000003AED89016E306500A0A13E104C0E9FFA0
:1034100005C0EAFF2D0EEF6E042AD8B0052A031E60
:10342000021E011E006C05E1012A03E1022AD8B444
:10343000032A0650E56E0550E56E0450E56E035014
:10344000E56E0250E56E0150E56E0050E56EF8EC59
:1034500013F0070EE126E4CF06F0E4CF05F0E4CF49
:1034600004F0E4CF03F0E4CF02F0E4CF01F0E4CFC6
:1034700000F0E4CFD9FF1200D9CFE5FFE1CFD9FFAB
:1034800000C0E5FF01C0E5FF02C0E5FF03C0E5FFA6
:1034900004C0E5FF05C0E5FF06C0E5FF020EDBCF77
:1034A00000F0030EDBCF01F0040EDBCF02F0050EBF
:1034B000DBCF03F0046A056A0344010B066E06B015
:1034C00011D00250022603360350015C02E1025083
:1034D000005C04E2D8900332023204D0052A05C011
:1034E00004F0EAD70350015C02E10250005C04E3FF
:1034F0000250005E0350015AD8900332023204C0D9
:1035000005F004060550EEE101C0F3FF0050E4CFE2
:1035100006F0E4CF05F0E4CF04F0E4CF03F0E4CF0D
:1035200002F0E4CF01F0E4CF00F0E4CFD9FF1200C5
:10353000D9CFE5FFE1CFD9FF00C0E5FF01C0E5FF2E
:1035400002C0E5FF03C0E5FF04C0E5FF05C0E5FFDD
:1035500006C0E5FF07C0E5FF010EE56E000EE56E53
:10356000D3EC1CF0020EE126480E006E0D0E016E2B
:10357000026A036A00C004F001C005F002C006F050
:1035800003C007F0FF0E0026FF0E0122FF0E0222ED
:10359000FF0E03220450051006100710EBE1000E89
:1035A000E56E200EE56E200EE56E0F0EE56E000E48
:1035B000E56E73EC19F0050EE126E4CF07F0E4CFD9
:1035C00006F0E4CF05F0E4CF04F0E4CF03F0E4CF5D
:1035D00002F0E4CF01F0E4CF00F0E4CFD9FF120015
:1035E000D9CFE5FFE1CFD9FF00C0E5FF01C0E5FF7E
:1035F00002C0E5FF03C0E5FF04C0E5FF05C0E5FF2D
:1036000006C0E5FF07C0E5FF020EDBCF00F0030EAA
:10361000DBCF01F0040EDBCF02F0050EDBCF03F0B1
:10362000046A056A100E066E0144010B076E010E56
:1036300007160050002601360450042605360750B0
:10364000D8A404800350055C02E10250045C05E349
:103650000250045E0350055A0080062EE5D701C0D3
:10366000F3FF0050E4CF07F0E4CF06F0E4CF05F01D
:10367000E4CF04F0E4CF03F0E4CF02F0E4CF01F0B4
:10368000E4CF00F0E4CFD9FF1200D9CFE5FFE1CFBE
:10369000D9FF00C0E5FF01C0E5FF02C0E5FF03C0A0
:1036A000E5FF020EDBCF00F04ACF01F0026A036AA9
:1036B0000050012603500222000EE56E3C0EE56E1E
:1036C0000250E56E0150E56E30EC17F0016EF3CF5D
:1036D00002F0040EE126015005E00150E56E9FEC7A
:1036E0001CF0E12A4ACF01F0026A01500026025084
:1036F0000322000EE56E3C0EE56E0350E56E0050B1
:10370000E56E96EC18F0006EF3CF01F0040EE126A2
:1037100000500F014A6FE4CF03F0E4CF02F0E4CF92
:1037200001F0E4CF00F0E4CFD9FF1200AE0EF66E48
:103730003B0EF76E000EF86E0900F550056E09009D
:10374000F550066E055002E106503BE00900F550C9
:10375000006E0900F550016E0900F550026E090077
:103760000900F550E96E0900F550EA6E09000900FC
:103770000900F550036E0900F550046E09000900B8
:10378000F6CF07F0F7CF08F0F8CF09F000C0F6FF4A
:1037900001C0F7FF02C0F8FF035002E1045007E048
:1037A0000900F550EE6E0306F8E20406F9D707C0EB
:1037B000F6FF08C0F7FF09C0F8FF0506C4E20606D9
:1037C000C5D71200D9CFE5FFE1CFD9FF0F01465190
:1037D0000F01491901E038D00F0147510F014A1973
:1037E00001E032D00F014D512FE01F0E0F01485D57
:1037F0000FE20F014F510CE10F015051090A04E093
:103800000F0150510B0A20E10A0E0F01506F1CD01E
:103810001F0E0F01485D18E30F014F6B91929194B9
:103820000F014E510AE04BCF49FF4CCF4AFF0F0129
:103830004E6B090E0F01506F07D00F0150510A0A4D
:1038400003E1090E0F01506FE4CFD9FF1200D9CF69
:10385000E5FFE1CFD9FF00C0E5FF01C0E5FF02C0F1
:10386000E5FF03C0E5FF04C0E5FF05C0E5FF020E6C
:10387000DBCF00F0030EDBCF01F0040EDBCF02F054
:10388000036A046A00C0E9FF01C0F3FF025098EC2C
:103890001DF0056E002AD8B0012AD8B0022A0550C2
:1038A00004E0032AD8B0042AEDD704C0F3FF035084
:1038B000E4CF05F0E4CF04F0E4CF03F0E4CF02F06E
:1038C000E4CF01F0E4CF00F0E4CFD9FF1200E8CF5D
:1038D000E5FFD8CFE5FFE0CFE5FFF3CFE5FFF4CF7D
:1038E000E5FFE9CFE5FFEACFE5FFFACFE5FFFBCF44
:1038F000E5FFD9CFE5FFE1CFD9FFF0A405D0010E58
:103900000F01526FF09406D0F0A004D0010E0F0109
:10391000536FF090E4CFD9FFE4CFFBFFE4CFFAFF81
:10392000E4CFEAFFE4CFE9FFE4CFF4FFE4CFF3FF15
:10393000E4CFE0FFE4CFD8FFE4CFE8FF1000D9CF19
:10394000E5FFE1CFD9FF00C0E5FF01C0E5FF02C000
:10395000E5FF03C0E5FF020EDBCF00F049CF01F029
:10396000026A036A0050012603500222000EE56E2F
:10397000180EE56E0250E56E0150E56E96EC18F0FB
:10398000006EF3CF01F0040EE12600500F01496FE5
:10399000E4CF03F0E4CF02F0E4CF01F0E4CF00F095
:1039A000E4CFD9FF1200D9CFE5FFE1CFD9FF00C0A6
:1039B000E5FF01C0E5FF020EDBCF00F0030EDBCF19
:1039C00001F0966A9994999290920050010BE84404
:1039D000E844F46E9050FB0BF410906E01C08DFF24
:1039E00000000000908000000000000000000000C7
:1039F00000000000000000009090E4CF01F0E4CF50
:103A000000F0E4CFD9FF1200D08EF28EF28CD58E6A
:103A1000F28AF294F184D59CD59AD586D66AD76A73
:103A20009A909A929A94919091929194938693827B
:103A3000F08AF094F086F090F09CF192C0EC10F0D7
:103A4000010E0F01506F0F01412BD58ED8EC0AF0FB
:103A500029EC04F0E2EC1BF01FEC07F0F7D71200A2
:103A6000E8AE0AD0F3CFEAFFEE50EECFF3FFEECF91
:103A7000F4FFEECFE9FF1200E8BC11D0E9CFF6FF6A
:103A8000F3CFF7FFF86E0900F5500900F5CFF3FF0B
:103A90000900F5CFF4FF0900F5CFE9FF120012008D
:103AA000E8AE08D0F3CFEAFFEE50EECFF3FFEECF53
:103AB000F4FF1200E8BC0ED0E9CFF6FFF3CFF7FF1A
:103AC000F86E0900F5500900F5CFF3FF0900F5CFB6
:103AD000F4FF12001200D9CFE5FFE1CFD9FF00C0FB
:103AE000E5FF020EDBCF00F0610E005C05E37B0E0C
:103AF000005C02E2010E01D0E86AE4CF00F0E4CFFE
:103B0000D9FF1200E8AE06D0F3CFEAFFEE50EECFB9
:103B1000F3FF1200E8BC0BD0E9CFF6FFF3CFF7FFBD
:103B2000F86E0900F5500900F5CFF3FF12001200FE
:103B3000E8AE04D0F3CFEAFFEE501200E8BC08D0A4
:103B4000E9CFF6FFF3CFF7FFF86E0900F55012004A
:103B50001200E8AE09D0F3CFEAFFE4CFEEFFF4CFD6
:103B6000EEFFF6CFEEFF1200E8AC1200120017EEE7
:103B7000FFF027EEFFF0F86AA68EA69C96EC1BF0ED
:103B800004EC1DF0FFD70100000000000000000061
:103B900000000000000000000000E8AE05D0F3CFF8
:103BA000EAFFE4CFEEFF1200E8AC120012000100C1
:103BB000863B0000410F000014000000E8CF7FFFAB
:023BC0001200F1
:00000001FF
