:020000040000FA
:1000000099EF16F0C96E12001FEF07F0ACA2FED7F1
:06001000AD6E12001200AB
:0800180061EF15F0D9CFE5FFFF
:10002000E1CFD9FF00C0E5FF01C0E5FF02C0E5FF59
:1000300003C0E5FF04C0E5FF05C0E5FF06C0E5FF1E
:1000400007C0E5FF08C0E5FF09C0E5FF0AC0E5FFFE
:100050000BC0E5FF0CC0E5FF0DC0E5FF0EC0E5FFDE
:100060000FC0E5FF10C0E5FF11C0E5FF12C0E5FFBE
:1000700013C0E5FF14C0E5FF15C0E5FF16C0E5FF9E
:1000800017C0E5FF18C0E5FF19C0E5FF1AC0E5FF7E
:100090001BC0E5FF1CC0E5FF1DC0E5FF1EC0E5FF5E
:1000A000020EDBCF00F0030EDBCF01F0040EDBCF3E
:1000B00002F0050EDBCF03F0060EDBCF04F0070ED7
:1000C000DBCF05F0080EDBCF06F0090EDBCF07F023
:1000D0000A0EDBCF08F0096A0A6A02C00DF00D5063
:1000E000800A0CE100C056FF01C057FF02C058FF54
:1000F0000F0E016E560E006E800E026E03C0E9FFF9
:1001000004C0F3FF05507AEC16F00B6E0B50D8B418
:10011000DFEF03F00B50250A02E0C4EF03F00C6A96
:100120000D6A0E6A0F6A106A0A0E116E126A136A5D
:10013000146A200E156E1668176A2B0E186E032AA5
:10014000D8B0042AD8B0052A03C0E9FF04C0F3FFE1
:1001500005507AEC16F0196E250A15E11950E56E76
:100160000250E56E0150E56E0050E56E4EEC10F069
:10017000040EE126092AD8B00A2A032AD8B0042A94
:10018000D8B0052ABBD71950300A07E1300E156EDA
:10019000032AD8B0042AD8B0052A03C0E9FF04C056
:1001A000F3FF05507AEC16F02D0A07E1010E146EEC
:1001B000032AD8B0042AD8B0052A03C0E9FF04C036
:1001C000F3FF05507AEC16F0200A09E1010E176ED4
:1001D000200E186E032AD8B0042AD8B0052A03C00E
:1001E000E9FF04C0F3FF05507AEC16F02B0A07E193
:1001F000010E176E032AD8B0042AD8B0052A03C00E
:10020000E9FF04C0F3FF05507AEC16F0196E800F79
:100210004F0F2EE31950800F460F2AE203C019F04A
:1002200004C01AF005C01BF019C0E9FF1AC0F3FFA3
:100230001B507AEC16F01C6E800F500F13E31C500D
:10024000800F460F0FE213500A0DF3CF1DF01D5023
:100250001C26D00E1C24136E192AD8B01A2AD8B026
:100260001B2AE2D719C003F01AC004F01BC005F026
:1002700003C0E9FF04C0F3FF05507AEC16F02E0A24
:1002800030E1032AD8B0042AD8B0052A166A03C080
:1002900019F004C01AF005C01BF019C0E9FF1AC01C
:1002A000F3FF1B507AEC16F01C6E800F500F13E317
:1002B0001C50800F460F0FE216500A0DF3CF1DF0B1
:1002C0001D501C26D00E1C24166E192AD8B01A2ACE
:1002D000D8B01B2AE2D719C003F01AC004F01BC023
:1002E00005F003C0E9FF04C0F3FF05507AEC16F0F7
:1002F000196E6C0A08E1010E0C6E032AD8B0042AAC
:10030000D8B0052A0AD01950680A07E1010E0E6E0E
:10031000032AD8B0042AD8B0052A03C0E9FF04C0D4
:10032000F3FF05507AEC16F0750A07E1010E106E26
:10033000032AD8B0042AD8B0052A03C0E9FF04C0B4
:10034000F3FF05507AEC16F0196E730A05E1010E01
:100350000D6E200E156E41D01950780A03E1100E73
:10036000116E3BD01950580A05E1100E116E010EA6
:10037000126E33D01950630A02E1116A2ED019505F
:100380006F0A03E1080E116E28D01950660A03E1C6
:10039000010E0F6E22D01950640A1FE01950690A2D
:1003A0001CE0105005E0FF0E03260422052215D0A4
:1003B0001950E56E0250E56E0150E56E0050E56E95
:1003C0004EEC10F0040EE126092AD8B00A2A032ABE
:1003D000D8B0042AD8B0052A91D60D5021E0065095
:1003E000030F0D6E000E0720196E000E08201A6E06
:1003F0000DC006F019C007F01AC008F0FD0E0D265A
:10040000FF0E19221A220DC0E9FF19C0F3FF1A507E
:1004100032EC16F00D6EF3CF19F0F4CF1AF000D1D4
:100420000F500DE0460E0D6E080E196E000E1A6E7E
:10043000040E0626000E072208221668F1D0166860
:100440000C5023E00650040F0C6E000E07200F6EB8
:10045000000E08201B6E0CC006F00FC007F01BC07A
:1004600008F0FC0E0C26FF0E0F221B220CC0E9FF29
:100470000FC0F3FF1B50F6EC15F00C6EF3CF0FF02E
:10048000F4CF1BF0E9CF1CF06AD00E5032E00650DA
:10049000020F0E6E000E07201D6E000E08201E6E4D
:1004A0000EC006F01DC007F01EC008F0FE0E0E269E
:1004B000FF0E1D221E220EC0E9FF1DC0F3FF1E50BD
:1004C00064EC16F00E6E0EC00CF0E86A0EBEFF0E65
:1004D0000F6E1B6E1C6E11500A0A03E11050D8B447
:1004E0003ED00C500E6E0EC00CF00F6A1B6A1C6AD8
:1004F00036D00650020F0E6E000E07201D6E000E45
:1005000008201E6E0EC006F01DC007F01EC008F0C9
:10051000FE0E0E26FF0E1D221E220EC0E9FF1DC07C
:10052000F3FF1E5064EC16F00E6EF3CF1DF00EC0FC
:100530000CF01DC00FF0E86A1DBEFF0E1B6E1C6E96
:1005400011500A0A02E110500AE00C500E6E0F50D2
:100550001D6E0EC00CF01DC00FF01B6A1C6A0E0E43
:10056000196E210E0D6E800E1A6E1150D8B440D047
:10057000105013E01150E56E0E0EE56E210EE56E83
:100580001C50E56E1B50E56E0F50E56E0C50E56E8D
:1005900022EC0DF0070EE12612D01150E56E0E0E82
:1005A000E56E210EE56E1C50E56E1B50E56E0F509A
:1005B000E56E0C50E56E68EC13F0070EE12617505F
:1005C0002FE00DC0E9FF19C0F3FF1A507AEC16F0C6
:1005D0002D0A26E0FF0E0D2619221A2218C0E5FF6B
:1005E0000DC0E9FF19C0F3FF1A50B0EC16F018D097
:1005F0000CC0E5FF0DC0E9FF19C0F3FF1A50B0ECC5
:1006000016F00D50010F0C6E000E19200E6E000E2C
:100610001A20E56A0CC0E9FF0EC0F3FFB0EC16F03B
:100620000DC00CF019C00EF01AC00FF013C010F07E
:10063000105011E00CC0E9FF0EC0F3FF0F507AEC30
:1006400016F0176E175007E00C2AD8B00E2AD8B053
:100650000F2A1006EDD710C013F014501FE109C087
:100660000CF00AC00EF010C00FF00F5011E0155042
:10067000E56E0250E56E0150E56E0050E56E4EEC01
:1006800010F0040EE1260C2AD8B00E2A0F06EDD782
:100690000CC009F00EC00AF00FC013F016C00CF029
:1006A0000DC00DF019C00EF01AC00FF009C010F007
:1006B0000AC015F00DC0E9FF0EC0F3FF0F507AEC31
:1006C00016F0166E1650D8B440D00CC016F0176A4B
:1006D000161E171E1650171005E00CC016F00C065B
:1006E000165033E00DC0E9FF0EC0F3FF0F507AEC57
:1006F00016F0116E125010E01150E56E4DEC16F030
:10070000166EE12A165004E0DF0E1114166E02D0A8
:1007100011C016F016C011F01150E56E0250E56ED2
:100720000150E56E0050E56E4EEC10F0040EE1262F
:100730000D2AD8B00E2AD8B00F2A102AD8B0152A00
:100740001350D8B4B7D71306B5D710C009F015C0E9
:100750000AF014502DE010C00CF015C00DF013C0BD
:100760000EF00E5021E0200EE56E0250E56E0150B5
:10077000E56E0050E56E4EEC10F0040EE1260C2AFA
:10078000D8B00D2A0E06EDD70B50E56E0250E56E7F
:100790000150E56E0050E56E4EEC10F0040EE126BF
:1007A000092AD8B00A2A04D00CC009F00DC00AF0FA
:1007B000032AD8B0042AD8B0052A7EEF00F00AC078
:1007C000F3FF0950E4CF1EF0E4CF1DF0E4CF1CF09E
:1007D000E4CF1BF0E4CF1AF0E4CF19F0E4CF18F027
:1007E000E4CF17F0E4CF16F0E4CF15F0E4CF14F027
:1007F000E4CF13F0E4CF12F0E4CF11F0E4CF10F027
:10080000E4CF0FF0E4CF0EF0E4CF0DF0E4CF0CF026
:10081000E4CF0BF0E4CF0AF0E4CF09F0E4CF08F026
:10082000E4CF07F0E4CF06F0E4CF05F0E4CF04F026
:10083000E4CF03F0E4CF02F0E4CF01F0E4CF00F026
:10084000E4CFD9FF12003C4E4F20464C4F41543E5E
:100850000000D9CFE5FFE1CFD9FF00C0E5FF01C01F
:10086000E5FF02C0E5FF03C0E5FF04C0E5FF05C0EA
:10087000E5FF06C0E5FF07C0E5FF08C0E5FF09C0CA
:10088000E5FF0AC0E5FF0BC0E5FF0CC0E5FF0DC0AA
:10089000E5FF0EC0E5FF010E0F014C5DD8A0D6EFBD
:1008A00006F00C0E0F014C5DD8B0D6EF06F00F012C
:1008B0004C05006E0FC0E5FF10C0E5FF106A003464
:1008C0001036E8341036FC0B0F6E000EFB6E080E6F
:1008D000FA6EEA0E0F261050FA22D8B0FB2A0F50FB
:1008E000E4CF10F0E4CF0FF0F96E8BEF04F0A3EF3C
:1008F00004F0D0EF04F0FCEF04F028EF05F03FEF38
:1009000005F070EF05F095EF05F0BAEF05F023EF75
:1009100006F04FEF06F00F0E016E210E006E800EF6
:10092000026E000EE56E0E0EE56EE00EE56E0250F4
:10093000E56E0150E56E0050E56E48EC11F0060ED4
:10094000E126ECEF06F044CF00F0016A43CF02F05D
:10095000036A42CF04F0056A0F0E076E210E066E81
:10096000800E086E0150E56E0050E56E0350E56E96
:100970000250E56E0550E56E0450E56E000EE56E22
:100980000F0EE56E020EE56E0850E56E0750E56E3F
:100990000650E56E48EC11F00C0EE126ECEF06F087
:1009A00044CF00F0016A43CF02F0036A42CF04F063
:1009B000056A0F0E076E210E066E800E086E01503E
:1009C000E56E0050E56E0350E56E0250E56E055091
:1009D000E56E0450E56E000EE56E0F0EE56E2A0E14
:1009E000E56E0850E56E0750E56E0650E56E48EC82
:1009F00011F00C0EE126F0D144CF00F0016A43CF94
:100A000002F0036A42CF04F0056A0F0E076E210E52
:100A1000066E800E086E0150E56E0050E56E0350C4
:100A2000E56E0250E56E0550E56E0450E56E000E71
:100A3000E56E0F0EE56E520EE56E0850E56E07503E
:100A4000E56E0650E56E48EC11F00C0EE126C4D1BF
:100A50000F0E016E210E006E800E026E000EE56E0E
:100A60000F0EE56E7A0EE56E0250E56E0150E56EF2
:100A70000050E56E48EC11F0060EE126ADD10F01F5
:100A8000455117E00F0E016E210E006E800E026EB2
:100A9000000EE56E0F0EE56E9C0EE56E0250E56EE3
:100AA0000150E56E0050E56E48EC11F0060EE126AF
:100AB00093D10F0E016E210E006E800E026E000E9D
:100AC000E56E0F0EE56EBE0EE56E0250E56E01504E
:100AD000E56E0050E56E48EC11F0060EE1267CD183
:100AE00047CF00F0016A46CF02F0036A0F0E056E91
:100AF000210E046E800E066E0150E56E0050E56E0C
:100B00000350E56E0250E56E000EE56E0F0EE56EC9
:100B1000E00EE56E0650E56E0550E56E0450E56E9C
:100B200048EC11F00A0EE12657D147CF00F0016AD8
:100B300046CF02F0036A0F0E056E210E046E800E82
:100B4000066E0150E56E0050E56E0350E56E0250F2
:100B5000E56E000EE56E100EE56E060EE56E0650B3
:100B6000E56E0550E56E0450E56E48EC11F00A0E96
:100B7000E12632D10F0145513AE047CF00F0016A3A
:100B800046CF02F0036A44CF04F0056A43CF06F073
:100B9000076A42CF08F0096A0F0E0B6E210E0A6E2B
:100BA000800E0C6E0150E56E0050E56E0350E56E50
:100BB0000250E56E0550E56E0450E56E0750E56E97
:100BC0000650E56E0950E56E0850E56E000EE56EC4
:100BD000100EE56E2C0EE56E0C50E56E0B50E56EBA
:100BE0000A50E56E48EC11F0100EE126F5D044CF26
:100BF00000F0016A43CF02F0036A42CF04F0056AB5
:100C00000F0E076E210E066E800E086E0150E56E07
:100C10000050E56E0350E56E0250E56E0550E56E3E
:100C20000450E56E000EE56E100EE56E580EE56E92
:100C30000850E56E0750E56E0650E56E48EC11F081
:100C40000C0EE126C9D044CF00F0016A43CF02F078
:100C5000036A42CF04F0056A0F0E076E210E066E7E
:100C6000800E086E0150E56E0050E56E0350E56E93
:100C70000250E56E0550E56E0450E56E000EE56E1F
:100C8000100EE56E800EE56E0850E56E0750E56EBD
:100C90000650E56E48EC11F00C0EE1269DD00A0ED0
:100CA0000F014A5DD8B041D049CF00F0016A48CF6A
:100CB00002F0036A4ACF04F0056A44CF06F0076ADF
:100CC00043CF08F0096A42CF0AF00B6A0F0E0D6E8F
:100CD000210E0C6E800E0E6E0150E56E0050E56E1A
:100CE0000350E56E0250E56E0550E56E0450E56E6A
:100CF0000750E56E0650E56E0950E56E0850E56E4A
:100D00000B50E56E0A50E56E000EE56E100EE56EB6
:100D1000A80EE56E0E50E56E0D50E56E0C50E56EBA
:100D200048EC11F0120EE12657D049CF00F0016ACD
:100D300048CF02F0036A4ACF04F0056A44CF06F0B8
:100D4000076A43CF08F0096A42CF0AF00B6A0F0E18
:100D50000D6E210E0C6E800E0E6E0150E56E005071
:100D6000E56E0350E56E0250E56E0550E56E0450E9
:100D7000E56E0750E56E0650E56E0950E56E0850C9
:100D8000E56E0B50E56E0A50E56E000EE56E100E36
:100D9000E56ED40EE56E0E50E56E0D50E56E0C500E
:100DA000E56E48EC11F0120EE12616D00F0E016E22
:100DB000210E006E800E026E000EE56E110EE56EC5
:100DC000000EE56E0250E56E0150E56E0050E56ED6
:100DD00048EC11F0060EE1260F0E016E210E006E9A
:100DE000800E026E0250E56E0150E56E0050E56E19
:100DF000000EE56E2FEC12F0040EE126E4CF0EF0AB
:100E0000E4CF0DF0E4CF0CF0E4CF0BF0E4CF0AF028
:100E1000E4CF09F0E4CF08F0E4CF07F0E4CF06F028
:100E2000E4CF05F0E4CF04F0E4CF03F0E4CF02F028
:100E3000E4CF01F0E4CF00F0E4CFD9FF1200E8CF17
:100E4000E5FFD8CFE5FFE0CFE5FFF3CFE5FFF4CF37
:100E5000E5FFE9CFE5FFEACFE5FFFACFE5FFFBCFFE
:100E6000E5FFD9CFE5FFE1CFD9FFF2A424D00F01F0
:100E7000512B02E30F01522B0F0151512F0A03E1B5
:100E80000F01525101E003D0010E0F014E6F0F010F
:100E900051515F0A03E10F01525101E00BD00F01E4
:100EA000532B02E30F01542B0F014D2B0F01516BFC
:100EB0000F01526BF294E4CFD9FFE4CFFBFFE4CFF4
:100EC000FAFFE4CFEAFFE4CFE9FFE4CFF4FFE4CF99
:100ED000F3FFE4CFE0FFE4CFD8FFE4CFE8FF10005A
:100EE000446F20796F752077616E7420746F2020B5
:100EF000736574207468652074696D65203F2020D7
:100F00000000205B253032755D3A20253032752097
:100F10003A2025303275202020202020202020203B
:100F20002020202020202020000020202530327585
:100F3000203A5B253032755D3A202530327520200D
:100F400020202020202020202020202020202020A1
:100F50000000202025303275203A202530327520BF
:100F60003A5B253032755D20202020202020202073
:100F700020202020202020200000446F20796F7541
:100F80002077616E7420746F2020736574207468FC
:100F90006520616C61726D203F2000002020416C53
:100FA00061726D205B4F4E205D202020202020208C
:100FB0002020202020202020202020200000202071
:100FC000416C61726D205B4F46465D2020202020E1
:100FD0002020202020202020202020202020000051
:100FE00020202020416C61726D206174202020201F
:100FF000202020205B253032755D3A202530327567
:1010000020202020000020202020416C61726D20D3
:1010100061742020202020202020202530327520BF
:101020003A5B253032755D202020000020202020F2
:10103000253032753A253032753A25303275202008
:101040002020416C61726D204F4E2020253032757A
:101050003A253032752000002020202025303275BE
:101060003A253032753A2530327520202020202054
:1010700020416C61726D20204F46462020200000E8
:1010800020202020253032753A253032753A25301F
:1010900032752020202020204920616D2072696E49
:1010A00067696E67212000002020202025303275DE
:1010B0003A253032753A2530327520202020536E83
:1010C0006F6F7A652025752020253032753A2530DE
:1010D0003275200020202020253032753A2530320C
:1010E000753A2530327520202020536E6F6F7A6557
:1010F00020257520253032753A25303275200000C4
:101100002A2A2A2A204552524F52202A2A2A2A2A9B
:101110002A2A2A2A204552524F52202A2A2A2A2A8B
:101120000000D9CFE5FFE1CFD9FF00C0E5FF01C046
:10113000E5FF02C0E5FF03C0E5FF04C0E5FF05C011
:10114000E5FF06C0E5FF07C0E5FF08C0E5FF020EAA
:10115000E56E000EE56E99EC15F0020EE126480EE4
:10116000006E0D0E016E026A036A00C004F001C039
:1011700005F002C006F003C007F0FF0E0026FF0EC8
:101180000122FF0E0222FF0E03220450051006105A
:101190000710EBE1006A00C001F0026A000E025C79
:1011A00002E1100E015CD8B057D0000E0024016E91
:1011B000026A0F0E022201C0E9FF02C0EAFFEFCF70
:1011C00001F0015019E100C001F001C002F0036A12
:1011D000000E035C02E1100E025C0EE2000E012420
:1011E000026E036A0F0E032202C0E9FF03C0EAFF8A
:1011F000200EEF6E012AE9D7000E0024016E026A6C
:101200000F0E022201C0E9FF02C0EAFFEFCF01F09A
:101210000150E56E010EE56E99EC15F0020EE12627
:10122000550E016E026A036A046A01C005F002C02D
:1012300006F003C007F004C008F0FF0E0126FF0E01
:101240000222FF0E0322FF0E042205500610071093
:101250000810EBE1002A9FD7C00EE56E000EE56E88
:1012600099EC15F0020EE126550E006E016A026A35
:10127000036A00C004F001C005F002C006F003C01C
:1012800007F0FF0E0026FF0E0122FF0E0222FF0EC6
:1012900003220450051006100710EBE1100E006E3B
:1012A00000C001F0026A000E025C02E1200E015C47
:1012B000D8B057D0000E0024016E026A0F0E022231
:1012C00001C0E9FF02C0EAFFEFCF01F0015019E1D0
:1012D00000C001F001C002F0036A000E035C02E1ED
:1012E000200E025C0EE2000E0124026E036A0F0E55
:1012F000032202C0E9FF03C0EAFF200EEF6E012ABD
:10130000E9D7000E0024016E026A0F0E022201C00E
:10131000E9FF02C0EAFFEFCF01F00150E56E010ED8
:10132000E56E99EC15F0020EE126550E016E026A8B
:10133000036A046A01C005F002C006F003C007F0AA
:1013400004C008F0FF0E0126FF0E0222FF0E03224A
:10135000FF0E04220550061007100810EBE1002ACA
:101360009FD7E4CF08F0E4CF07F0E4CF06F0E4CF56
:1013700005F0E4CF04F0E4CF03F0E4CF02F0E4CFD3
:1013800001F0E4CF00F0E4CFD9FF1200D9CFE5FFA0
:10139000E1CFD9FF00C0E5FF0F014F51D8B47CD099
:1013A000010E0F014C5DD8A074D00C0E0F014C5DE6
:1013B000D8B06FD00F014C05006E01C0E5FF02C030
:1013C000E5FF026A00340236E8340236FC0B016E97
:1013D000000EFB6E130EFA6EF00E01260250FA227A
:1013E000D8B0FB2A0150E4CF02F0E4CF01F0F96E4F
:1013F0000EEF0AF012EF0AF016EF0AF01AEF0AF0F9
:101400001EEF0AF022EF0AF026EF0AF02AEF0AF0A8
:101410002EEF0AF032EF0AF03BEF0AF0050E0F0153
:101420004C6F37D0030E0F014C6F33D0040E0F01F9
:101430004C6F2FD0050E0F014C6F2BD0090E0F01F2
:101440004C6F27D0070E0F014C6F23D0080E0F01F1
:101450004C6F1FD0090E0F014C6F1BD0010E0F01F6
:101460004C6F17D0010E0F014B6F91929194090EA2
:101470000F014C6F0ED0010E0F014B6F49CF47FF8C
:1014800048CF46FF0F014A6B91929194090E0F01CC
:101490004C6F0F014F6BA3D00F015051D8B49FD0A8
:1014A000010E0F014C5DD8A098D00C0E0F014C5DC1
:1014B000D8B093D00F014C05006E01C0E5FF02C00B
:1014C000E5FF026A00340236E8340236FC0B016E96
:1014D000000EFB6E140EFA6EF00E01260250FA2278
:1014E000D8B0FB2A0150E4CF02F0E4CF01F0F96E4E
:1014F0008EEF0AF092EF0AF09CEF0AF0A6EF0AF0E6
:10150000B0EF0AF0B4EF0AF0B8EF0AF0C4EF0AF057
:10151000D0EF0AF0D1EF0AF0E2EF0AF0020E0F016D
:101520004C6F5BD00F01422B0F014251180A01E0B2
:1015300054D00F01426B51D00F0143513B0A03E1DC
:101540000F01436B4AD00F01432B47D00F01445189
:101550003B0A03E10F01446B40D00F01442B3DD007
:10156000060E0F014C6F39D0010E0F01451B35D00F
:101570000F014651170A03E10F01466B02D00F011C
:10158000462B46CF48FF29D00F0147513B0A03E1C4
:101590000F01476B02D00F01472B47CF49FF1DD0EA
:1015A0001CD00C0E0F014A5D18E2050EE56E9AEC98
:1015B00012F0E12A0F014A2B919291940B0E0F0128
:1015C0004C6F0BD00C0E0F014A5D07E2050EE56E65
:1015D0009AEC12F0E12A0F014A2B0F01506BE4CF75
:1015E00000F0E4CFD9FF1200D9CFE5FFE1CFD9FF5A
:1015F00000C0E5FF01C0E5FF02C0E5FF03C0E5FF55
:1016000004C0E5FF05C0E5FF06C0E5FF07C0E5FF34
:1016100008C0E5FF000EE56E200EE56E200EE56EBB
:101620000F0EE56E000EE56E03EC13F0050EE126DD
:101630000F01206B90909092966A9992999499904C
:10164000A00E006E090E016E010E026E036A00C04C
:1016500004F001C005F002C006F003C007F0FF0E61
:101660000026FF0E0122FF0E0222FF0E032204506D
:10167000051006100710EBE19094030E8D6E00002C
:101680000000006A00C001F0026A000E025C02E184
:10169000030E015C39E29080110E016E026A036A4A
:1016A000046A01C005F002C006F003C007F004C0E0
:1016B00008F0FF0E0126FF0E0222FF0E0322FF0E8E
:1016C00004220550061007100810EBE19090480E18
:1016D000016E0D0E026E036A046A01C005F002C0BD
:1016E00006F003C007F004C008F0FF0E0126FF0E4D
:1016F0000222FF0E0322FF0E0422055006100710DF
:101700000810EBE1002ABED7380EE56E000EE56E3C
:1017100099EC15F0020EE126550E006E016A026A80
:10172000036A00C004F001C005F002C006F003C067
:1017300007F0FF0E0026FF0E0122FF0E0222FF0E11
:1017400003220450051006100710EBE1060EE56EAB
:10175000000EE56E99EC15F0020EE126550E006EB6
:10176000016A026A036A00C004F001C005F002C009
:1017700006F003C007F0FF0E0026FF0E0122FF0E49
:101780000222FF0E03220450051006100710EBE1A1
:101790000C0EE56E000EE56E99EC15F0020EE126DA
:1017A000550E006E016A026A036A00C004F001C0AF
:1017B00005F002C006F003C007F0FF0E0026FF0E82
:1017C0000122FF0E0222FF0E032204500510061014
:1017D0000710EBE1010EE56E000EE56E99EC15F0D9
:1017E000020EE126480E006E0D0E016E026A036ABB
:1017F00000C004F001C005F002C006F003C007F00D
:10180000FF0E0026FF0E0122FF0E0222FF0E032212
:101810000450051006100710EBE1E4CF08F0E4CF08
:1018200007F0E4CF06F0E4CF05F0E4CF04F0E4CF16
:1018300003F0E4CF02F0E4CF01F0E4CF00F0E4CF16
:10184000D9FF1200D9CFE5FFE1CFD9FF00C0E5FFF6
:1018500001C0E5FF02C0E5FF03C0E5FF04C0E5FFEE
:1018600005C0E5FF06C0E5FF07C0E5FF08C0E5FFCE
:1018700009C0E5FF0AC0E5FF0BC0E5FF0CC0E5FFAE
:101880000DC0E5FF0EC0E5FF0FC0E5FF10C0E5FF8E
:1018900011C0E5FF12C0E5FF13C0E5FF14C0E5FF6E
:1018A00015C0E5FF020EDBCF00F0030EDBCF01F029
:1018B000040EDBCF02F0050EDBCF03F0060EDBCF0C
:1018C00004F0070EDBCF05F0080EDBCF06F0090EA3
:1018D000DBCF07F000C008F001C009F002C00AF039
:1018E00003C00BF004C00CF005C00DF006C00EF0F4
:1018F00007C00FF006500710D8B43ED003C010F058
:1019000004C011F005C012F006C013F007C014F0B7
:10191000FF0E1326D8A01406135014101DE010C09B
:10192000E9FF11C0F3FF12507AEC16F0156E102A81
:10193000D8B0112AD8B0122A15C0E5FF00C0E9FFBF
:1019400001C0F3FF0250B0EC16F0002AD8B0012A13
:10195000D8B0022A1550DCE110C00BF011C00CF019
:1019600012C00DF000C008F001C009F002C00AF07A
:1019700013C00EF014C00FF00E500F1027E10650E8
:10198000071009E0000EE56E08C0E9FF09C0F3FF8B
:101990000A50B0EC16F00BC000F00CC001F00DC006
:1019A00002F000C0E9FF01C0F3FF02507AEC16F02C
:1019B000066E002AD8B0012AD8B0022A0650F1E1FA
:1019C00000C00BF001C00CF002C00DF003500B5C26
:1019D000036E04500C58046EFF0E0326D8A00406B4
:1019E00004C0F3FF0350E4CF15F0E4CF14F0E4CFCC
:1019F00013F0E4CF12F0E4CF11F0E4CF10F0E4CF15
:101A00000FF0E4CF0EF0E4CF0DF0E4CF0CF0E4CF14
:101A10000BF0E4CF0AF0E4CF09F0E4CF08F0E4CF14
:101A200007F0E4CF06F0E4CF05F0E4CF04F0E4CF14
:101A300003F0E4CF02F0E4CF01F0E4CF00F0E4CF14
:101A4000D9FF1200D9CFE5FFE1CFD9FF00C0E5FFF4
:101A500001C0E5FF02C0E5FF03C0E5FF04C0E5FFEC
:101A600005C0E5FF06C0E5FF07C0E5FF08C0E5FFCC
:101A700009C0E5FF0AC0E5FF0BC0E5FF0CC0E5FFAC
:101A80000DC0E5FF0EC0E5FF0FC0E5FF020EDBCF86
:101A900000F0030EDBCF01F0040EDBCF02F0050EE9
:101AA000DBCF03F0060EDBCF04F0070EDBCF05F033
:101AB000080EDBCF06F0200E076E086A06C009F09C
:101AC0000A6A0B6A0C6AE56AE56AE56A0950E56E1E
:101AD0000350E56E0250E56E0150E56E0050E56E74
:101AE0002FEC0FF00D6E080EE126300E0D263A0E8B
:101AF0000D5C02E3270E0D26FF0E0726D8A0080670
:101B0000000E07240E6E0E0E08200F6E0EC0E9FFA9
:101B10000FC0EAFF0DC0EFFF0C50E56E0B50E56EF5
:101B20000A50E56E0950E56E0350E56E0250E56E11
:101B30000150E56E0050E56EC1EC0FF0006EF3CF82
:101B400001F0F4CF02F0E9CF03F0080EE1260050D7
:101B5000011002100310D8A4B1D707C000F008C0CC
:101B600001F004C002F005C003F000C004F001C0A1
:101B700005F0002AD8B0012A000E04260E0E052218
:101B800004C0E9FF05C0EAFFEFCF04F002C0E9FF9F
:101B900003C0EAFF04C0EFFF022AD8B0032A000EF8
:101BA000015C02E1200E005CE0E302C0E9FF03C03B
:101BB000EAFF000EEF6AE4CF0FF0E4CF0EF0E4CFBF
:101BC0000DF0E4CF0CF0E4CF0BF0E4CF0AF0E4CF5B
:101BD00009F0E4CF08F0E4CF07F0E4CF06F0E4CF5B
:101BE00005F0E4CF04F0E4CF03F0E4CF02F0E4CF5B
:101BF00001F0E4CF00F0E4CFD9FF1200D9CFE5FF28
:101C0000E1CFD9FF00C0E5FF01C0E5FF02C0E5FF5D
:101C100003C0E5FF04C0E5FF05C0E5FF06C0E5FF22
:101C200007C0E5FF020EDBCF00F044CF01F0026AEF
:101C3000036A00500124006E03500220016E000E62
:101C4000E56E3C0EE56E0150E56E0050E56ECDECA4
:101C500010F0026EF3CF03F0040EE1260250D8B468
:101C600047D043CF03F0046A056A02500324026E92
:101C700005500420036E000EE56E3C0EE56E035029
:101C8000E56E0250E56ECDEC10F0046EF3CF05F07A
:101C9000040EE12604501AE042CF05F0066A076AF6
:101CA0000450052607500622000EE56E180EE56E5C
:101CB0000650E56E0550E56EBDEC11F0046EF3CFF5
:101CC00005F0040EE12604500F01426F000EE56E90
:101CD0003C0EE56E0350E56E0250E56EBDEC11F072
:101CE000026EF3CF03F0040EE12602500F01436FA2
:101CF000000EE56E3C0EE56E0150E56E0050E56E9F
:101D0000BDEC11F0006EF3CF01F0040EE12600509F
:101D10000F01446FE4CF07F0E4CF06F0E4CF05F005
:101D2000E4CF04F0E4CF03F0E4CF02F0E4CF01F01D
:101D3000E4CF00F0E4CFD9FF1200D9CFE5FFE1CF27
:101D4000D9FF00C0E5FF0F014E510EE0006A91B0CF
:101D5000002A010E001A0050010BF46E9150FE0B88
:101D6000F410916E0F014E6B0F014D5114E00F01F5
:101D70004D51E56EFEEC0DF0E12A0F014D6B006A4E
:101D800091B0002A010E001A0050010BF46E915020
:101D9000FE0BF410916E0F0142510F01461901E044
:101DA00059D00F0143510F01471901E053D00F01E2
:101DB0004551D8B44FD01F0E0F01445D2FE20F01E3
:101DC0004B512CE10F014C51090A04E00F014C5119
:101DD0000B0A03E10A0E0F014C6F0F014C510A0A66
:101DE00001E038D0006A91B2002A010E001A0050BA
:101DF000010BE844F46E9150FD0BF410916E006AF3
:101E000091B4002A010E001A0050010BE844E84486
:101E1000F46E9150FB0BF410916E1CD01F0E0F014D
:101E2000445D18E30F014B6B919291940F014A515D
:101E30000AE048CF46FF49CF47FF0F014A6B090E22
:101E40000F014C6F07D00F014C510A0A03E1090E34
:101E50000F014C6FE4CF00F0E4CFD9FF1200D9CFCF
:101E6000E5FFE1CFD9FF00C0E5FF01C0E5FF02C0FB
:101E7000E5FF03C0E5FF04C0E5FF05C0E5FF06C0C0
:101E8000E5FF07C0E5FF08C0E5FF09C0E5FF0AC0A0
:101E9000E5FF020EDBCF00F0030EDBCF01F0040EF6
:101EA000DBCF02F0050EDBCF03F0060EDBCF04F034
:101EB000070EDBCF05F0080EDBCF06F0090EDBCFF7
:101EC00007F0086A096A0744010B0A6E0AB01BD0C2
:101ED000045004260536063607360750035C08E131
:101EE0000650025C05E10550015C02E10450005C13
:101EF00006E2D890073206320532043204D0092AAD
:101F000009C008F0E0D70750035C08E10650025C06
:101F100005E10550015C02E10450005C08E3045057
:101F2000005E0550015A0650025A0750035AD890D5
:101F3000073206320532043208C009F0080609509B
:101F4000E2E103C0E9FF02C0F4FF01C0F3FF00506B
:101F5000E4CF0AF0E4CF09F0E4CF08F0E4CF07F0D3
:101F6000E4CF06F0E4CF05F0E4CF04F0E4CF03F0D3
:101F7000E4CF02F0E4CF01F0E4CF00F0E4CFD9FFEA
:101F80001200D9CFE5FFE1CFD9FF00C0E5FF01C0C6
:101F9000E5FF02C0E5FF03C0E5FF04C0E5FF05C0A3
:101FA000E5FF06C0E5FF07C0E5FF08C0E5FF09C083
:101FB000E5FF0AC0E5FF0BC0E5FF0CC0E5FF0DC063
:101FC000E5FF020EDBCF00F0030EDBCF01F0040EC5
:101FD000DBCF02F0050EDBCF03F0060EDBCF04F003
:101FE000070EDBCF05F0080EDBCF06F0090EDBCFC6
:101FF00007F0086A096A0A6A0B6A200E0C6E03442D
:10200000010B0D6E010E0D16005000260136023632
:1020100003360850082609360A360B360D50D8A468
:10202000088007500B5C08E106500A5C05E105508A
:10203000095C02E10450085C09E30450085E0550A5
:10204000095A06500A5A07500B5A00800C2ED7D74F
:1020500003C0E9FF02C0F4FF01C0F3FF0050E4CF6A
:102060000DF0E4CF0CF0E4CF0BF0E4CF0AF0E4CFB6
:1020700009F0E4CF08F0E4CF07F0E4CF06F0E4CFB6
:1020800005F0E4CF04F0E4CF03F0E4CF02F0E4CFB6
:1020900001F0E4CF00F0E4CFD9FF1200D9CFE5FF83
:1020A000E1CFD9FF00C0E5FF01C0E5FF02C0E5FFB9
:1020B00003C0E5FF04C0E5FF05C0E5FF06C0E5FF7E
:1020C00007C0E5FF020EDBCF00F0030EDBCF01F00F
:1020D000040EDBCF02F0050EDBCF03F002C006F0EA
:1020E0000650046E800A28E100C0E9FF01C0F3FF3A
:1020F000025032EC16F0056EF3CF06F0F4CF07F085
:1021000003C0E5FF05C0E9FF06C0F3FF0750B0ECD0
:1021100016F0052AD8B0062AD8B0072A05C0E5FF70
:1021200006C0F4FF07C0F6FF00C0E9FF01C0F3FFDF
:1021300002508BEC16F01ED004AA1CD0200E041AFC
:10214000045004E1035006EC00F014D00450010ADE
:1021500004E1035002EC00F00DD004500F0A04E13A
:1021600003500AEC00F006D004500E0A03E10350BD
:10217000C1EC16F0E4CF07F0E4CF06F0E4CF05F0B1
:10218000E4CF04F0E4CF03F0E4CF02F0E4CF01F0B9
:10219000E4CF00F0E4CFD9FF1200D9CFE5FFE1CFC3
:1021A000D9FF00C0E5FF01C0E5FF02C0E5FF03C0A5
:1021B000E5FF04C0E5FF05C0E5FF06C0E5FF07C079
:1021C000E5FF020EDBCF00F0030EDBCF01F0040EC3
:1021D000DBCF02F0050EDBCF03F0D88001AED89044
:1021E000046A0436045007E0011C066E001C056EEC
:1021F000054A062A04D000C005F001C006F005C05B
:1022000000F006C001F0D88003AED890056A05360C
:10221000055007E0031C076E021C066E064A072ADB
:1022200004D002C006F003C007F00750E56E065068
:10223000E56E0150E56E0050E56E80EC14F0006E26
:10224000F3CF01F0040EE1260550041A04500AE011
:10225000011C036E001C026E024A032A03C0F3FF36
:10226000025003D001C0F3FF0050E4CF07F0E4CFE9
:1022700006F0E4CF05F0E4CF04F0E4CF03F0E4CFC0
:1022800002F0E4CF01F0E4CF00F0E4CFD9FF120078
:10229000D9CFE5FFE1CFD9FF00C0E5FF01C0E5FFE1
:1022A00002C0E5FF03C0E5FF04C0E5FF05C0E5FF90
:1022B000050ED924006E000EDA20016E030E0026F2
:1022C000D8B0012A020EDBCF03F0030EDBCF04F0FF
:1022D000040EDBCF05F0800EE56E0150E56E005078
:1022E000E56E070EDBCFE5FF060EDBCFE5FF050E43
:1022F000DBCFE5FF0550E56E0450E56E0350E56E5B
:102300000EEC00F0006EF3CF01F0090EE12606C0DE
:10231000E5FF07C0E5FF08C0E5FF020EDBCF06F0D2
:10232000030EDBCF07F0040EDBCF08F000500624CD
:10233000026E01500720036EE86A0820E4CF08F01F
:10234000E4CF07F0E4CF06F0E56A02C0E9FF03C07E
:10235000F3FFB0EC16F001C0F3FF0050E4CF05F03E
:10236000E4CF04F0E4CF03F0E4CF02F0E4CF01F0D7
:10237000E4CF00F0E4CFD9FF1200D9CFE5FFE1CFE1
:10238000D9FF00C0E5FF01C0E5FF02C0E5FF03C0C3
:10239000E5FF04C0E5FF05C0E5FF06C0E5FF020E4E
:1023A000DBCF00F0030EDBCF01F0040EDBCF02F039
:1023B000050EDBCF03F0D88001AED890046A043656
:1023C000045007E0011C066E001C056E054A062A33
:1023D00004D000C005F001C006F005C000F006C042
:1023E00001F0D88003AED89007E3031C066E021CF0
:1023F000056E054A062A04D002C005F003C006F0A7
:102400000650E56E0550E56E0150E56E0050E56E34
:10241000CCEC13F0006EF3CF01F0040EE126045073
:102420000AE0011C036E001C026E024A032A03C06C
:10243000F3FF025003D001C0F3FF0050E4CF06F0D9
:10244000E4CF05F0E4CF04F0E4CF03F0E4CF02F0F2
:10245000E4CF01F0E4CF00F0E4CFD9FF1200D9CFF0
:10246000E5FFE1CFD9FF00C0E5FF01C0E5FF02C0F5
:10247000E5FF03C0E5FF04C0E5FF05C0E5FF06C0BA
:10248000E5FF07C0E5FF020EDBCF00F0030EDBCF58
:1024900001F0040EDBCF02F0050EDBCF03F003509A
:1024A000E56E0250E56E0150E56E21EC15F0046E0C
:1024B000F3CF05F0030EE126042A00502008056E34
:1024C000066A000E00260F0E06220650066E005009
:1024D000006E800E076E0550045C02E305C004F038
:1024E000056A0550E56E0450E56E0350E56E025036
:1024F000E56E0150E56E0750E56E0650E56E005042
:10250000E56E22EC0CF0080EE12691EC08F0E4CF29
:1025100007F0E4CF06F0E4CF05F0E4CF04F0E4CF19
:1025200003F0E4CF02F0E4CF01F0E4CF00F0E4CF19
:10253000D9FF1200D9CFE5FFE1CFD9FF00C0E5FFF9
:1025400001C0E5FF02C0E5FF03C0E5FF04C0E5FFF1
:1025500005C0E5FF020EDBCF00F047CF01F0026AB5
:10256000036A00500124006E03500220016E000E29
:10257000E56E3C0EE56E0150E56E0050E56ECDEC6B
:1025800010F0026EF3CF03F0040EE12602501AE0C1
:1025900046CF03F0046A056A025003260550042260
:1025A000000EE56E180EE56E0450E56E0350E56E04
:1025B000BDEC11F0026EF3CF03F0040EE1260250E1
:1025C0000F01466F000EE56E3C0EE56E0150E56EA4
:1025D0000050E56EBDEC11F0006EF3CF01F0040E7B
:1025E000E12600500F01476FE4CF05F0E4CF04F07F
:1025F000E4CF03F0E4CF02F0E4CF01F0E4CF00F049
:10260000E4CFD9FF1200D9CFE5FFE1CFD9FF00C059
:10261000E5FF01C0E5FF02C0E5FF03C0E5FF04C020
:10262000E5FF05C0E5FF06C0E5FF07C0E5FF08C000
:10263000E5FF09C0E5FF020EDBCF00F0030EDBCFA4
:1026400001F0040EDBCF02F0050EDBCF03F0060E27
:10265000DBCF04F00150066E0050056E800E076E51
:1026600003C008F004C009F0FF0E0326D8A004063A
:10267000085009100FE002C0E5FF05C0E9FF06C0E1
:10268000F3FF0750B0EC16F0052AD8B0062AD8B0F0
:10269000072AE6D7800E026E02C0F4FF01C0F3FFE6
:1026A0000050E4CF09F0E4CF08F0E4CF07F0E4CF26
:1026B00006F0E4CF05F0E4CF04F0E4CF03F0E4CF7C
:1026C00002F0E4CF01F0E4CF00F0E4CFD9FF120034
:1026D000D9CFE5FFE1CFD9FF00C0E5FF01C0E5FF9D
:1026E00002C0E5FF03C0E5FF04C0E5FF05C0E5FF4C
:1026F00006C0E5FF020EDBCF00F0030EDBCF01F0DA
:10270000040EDBCF02F0050EDBCF03F0060EDBCFAD
:1027100004F0070EDBCF05F0080EDBCF06F0D88003
:1027200003AED89016E306500A0A13E104C0E9FF8D
:1027300005C0EAFF2D0EEF6E042AD8B0052A031E4D
:10274000021E011E006C05E1012A03E1022AD8B431
:10275000032A0650E56E0550E56E0450E56E035001
:10276000E56E0250E56E0150E56E0050E56E22EC1C
:102770000DF0070EE126E4CF06F0E4CF05F0E4CF3C
:1027800004F0E4CF03F0E4CF02F0E4CF01F0E4CFB3
:1027900000F0E4CFD9FF1200D9CFE5FFE1CFD9FF98
:1027A00000C0E5FF01C0E5FF02C0E5FF03C0E5FF93
:1027B00004C0E5FF05C0E5FF06C0E5FF020EDBCF64
:1027C00000F0030EDBCF01F0040EDBCF02F0050EAC
:1027D000DBCF03F0046A056A0344010B066E06B002
:1027E00011D00250022603360350015C02E1025070
:1027F000005C04E2D8900332023204D0052A05C0FE
:1028000004F0EAD70350015C02E10250005C04E3EB
:102810000250005E0350015AD8900332023204C0C5
:1028200005F004060550EEE101C0F3FF0050E4CFCF
:1028300006F0E4CF05F0E4CF04F0E4CF03F0E4CFFA
:1028400002F0E4CF01F0E4CF00F0E4CFD9FF1200B2
:10285000D9CFE5FFE1CFD9FF00C0E5FF01C0E5FF1B
:1028600002C0E5FF03C0E5FF04C0E5FF05C0E5FFCA
:1028700006C0E5FF07C0E5FF010EE56E000EE56E40
:1028800099EC15F0020EE126480E006E0D0E016E59
:10289000026A036A00C004F001C005F002C006F03D
:1028A00003C007F0FF0E0026FF0E0122FF0E0222DA
:1028B000FF0E03220450051006100710EBE1000E76
:1028C000E56E200EE56E200EE56E0F0EE56E000E35
:1028D000E56E03EC13F0050EE126E4CF07F0E4CF3C
:1028E00006F0E4CF05F0E4CF04F0E4CF03F0E4CF4A
:1028F00002F0E4CF01F0E4CF00F0E4CFD9FF120002
:10290000D9CFE5FFE1CFD9FF00C0E5FF01C0E5FF6A
:1029100002C0E5FF03C0E5FF04C0E5FF05C0E5FF19
:1029200006C0E5FF07C0E5FF020EDBCF00F0030E97
:10293000DBCF01F0040EDBCF02F0050EDBCF03F09E
:10294000046A056A100E066E0144010B076E010E43
:10295000071600500026013604500426053607509D
:10296000D8A404800350055C02E10250045C05E336
:102970000250045E0350055A0080062EE5D701C0C0
:10298000F3FF0050E4CF07F0E4CF06F0E4CF05F00A
:10299000E4CF04F0E4CF03F0E4CF02F0E4CF01F0A1
:1029A000E4CF00F0E4CFD9FF1200740EF66E2D0EC6
:1029B000F76E000EF86E0900F550056E0900F5502F
:1029C000066E055002E106503BE00900F550006E2E
:1029D0000900F550016E0900F550026E090009006A
:1029E000F550E96E0900F550EA6E0900090009008A
:1029F000F550036E0900F550046E09000900F6CF8A
:102A000007F0F7CF08F0F8CF09F000C0F6FF01C0DB
:102A1000F7FF02C0F8FF035002E1045007E009008D
:102A2000F550EE6E0306F8E20406F9D707C0F6FF8C
:102A300008C0F7FF09C0F8FF0506C4E20606C5D7BF
:102A40001200D9CFE5FFE1CFD9FF00C0E5FF01C0FB
:102A5000E5FF02C0E5FF03C0E5FF04C0E5FF05C0D8
:102A6000E5FF020EDBCF00F0030EDBCF01F0040E1A
:102A7000DBCF02F0036A046A00C0E9FF01C0F3FF84
:102A800002507AEC16F0056E002AD8B0012AD8B0B0
:102A9000022A055004E0032AD8B0042AEDD704C066
:102AA000F3FF0350E4CF05F0E4CF04F0E4CF03F0EC
:102AB000E4CF02F0E4CF01F0E4CF00F0E4CFD9FF9F
:102AC0001200E8CFE5FFD8CFE5FFE0CFE5FFF3CF79
:102AD000E5FFF4CFE5FFE9CFE5FFEACFE5FFFACF69
:102AE000E5FFFBCFE5FFD9CFE5FFE1CFD9FFF0A4AC
:102AF00005D0010E0F014F6FF09406D0F0A004D066
:102B0000010E0F01506FF090E4CFD9FFE4CFFBFF2F
:102B1000E4CFFAFFE4CFEAFFE4CFE9FFE4CFF4FF2C
:102B2000E4CFF3FFE4CFE0FFE4CFD8FFE4CFE8FF4A
:102B30001000D9CFE5FFE1CFD9FF00C0E5FF01C00C
:102B4000E5FF020EDBCF00F0030EDBCF01F0966A4B
:102B50009994999290920050010BE844E844F46EE5
:102B60009050FB0BF410906E01C08DFF0000000030
:102B70009080000000000000000000000000000045
:102B8000000000009090E4CF01F0E4CF00F0E4CF2B
:102B9000D9FF1200D08EF28EF28CD58EF28AF2948A
:102BA000F184D59CD59AD586D66AD76A9A909A929E
:102BB0009A9491909192919493869382F08AF09452
:102BC000F086F090F09CF192F4EC0AF0010E0F0107
:102BD0004C6F0F01412BD58E9DEC0EF016EC16F0CC
:102BE000C6EC09F029EC04F0F7D71200E8AE0AD0E1
:102BF000F3CFEAFFEE50EECFF3FFEECFF4FFEECFD0
:102C0000E9FF1200E8BC11D0E9CFF6FFF3CFF7FFE0
:102C1000F86E0900F5500900F5CFF3FF0900F5CF74
:102C2000F4FF0900F5CFE9FF12001200D9CFE5FF4C
:102C3000E1CFD9FF0F015451800F800F03E1050E42
:102C40000F01535D0CE3FE0E0F01512702E20F014D
:102C50005207FB0E0F01532702E20F015407E4CF86
:102C6000D9FF1200E8AE08D0F3CFEAFFEE50EECF66
:102C7000F3FFEECFF4FF1200E8BC0ED0E9CFF6FF71
:102C8000F3CFF7FFF86E0900F5500900F5CFF3FF19
:102C90000900F5CFF4FF12001200D9CFE5FFE1CF14
:102CA000D9FF00C0E5FF020EDBCF00F0610E005C33
:102CB00005E37B0E005C02E2010E01D0E86AE4CF7E
:102CC00000F0E4CFD9FF1200E8AE06D0F3CFEAFF60
:102CD000EE50EECFF3FF1200E8BC0BD0E9CFF6FFC9
:102CE000F3CFF7FFF86E0900F5500900F5CFF3FFB9
:102CF00012001200E8AE04D0F3CFEAFFEE5012004B
:102D0000E8BC08D0E9CFF6FFF3CFF7FFF86E090073
:102D1000F55012001200E8AE09D0F3CFEAFFE4CF7D
:102D2000EEFFF4CFEEFFF6CFEEFF1200E8AC12009C
:102D3000120017EEFFF027EEFFF0F86AA68EA69CB1
:102D4000D5EC14F0CAEC15F0FFD70100000000002C
:102D50000000000000000000000000000000000073
:102D6000E8AE05D0F3CFEAFFE4CFEEFF1200E8AC07
:102D70001200120001004A2D0000410F0000150052
:082D80000000E8CF7FFF120004
:00000001FF
