:020000040000FA
:10000000B3EF21F0C96E12001BEF11F0ACA2FED7C6
:06001000AD6E12001200AB
:08001800FBEF1FF0D9CFE5FF5B
:10002000E1CFD9FF00C0E5FF01C0E5FF02C0E5FF59
:1000300003C0E5FF04C0E5FF05C0E5FF06C0E5FF1E
:1000400007C0E5FF08C0E5FF09C0E5FF0AC0E5FFFE
:100050000BC0E5FF0CC0E5FF0DC0E5FF0EC0E5FFDE
:100060000FC0E5FF10C0E5FF11C0E5FF12C0E5FFBE
:1000700013C0E5FF14C0E5FF15C0E5FF16C0E5FF9E
:1000800017C0E5FF18C0E5FF19C0E5FF1AC0E5FF7E
:100090001BC0E5FF1CC0E5FF1DC0E5FF1EC0E5FF5E
:1000A000020EDBCF00F0030EDBCF01F0040EDBCF3E
:1000B00002F0050EDBCF03F0060EDBCF04F0070ED7
:1000C000DBCF05F0080EDBCF06F0090EDBCF07F023
:1000D0000A0EDBCF08F0096A0A6A02C00DF00D5063
:1000E000800A0CE100C065FE01C066FE02C067FE2A
:1000F0000E0E016E650E006E800E026E03C0E9FFEB
:1001000004C0F3FF055094EC21F00B6E0B50D8B4F3
:10011000DFEF03F00B50250A02E0C4EF03F00C6A96
:100120000D6A0E6A0F6A106A0A0E116E126A136A5D
:10013000146A200E156E1668176A2B0E186E032AA5
:10014000D8B0042AD8B0052A03C0E9FF04C0F3FFE1
:10015000055094EC21F0196E250A15E11950E56E51
:100160000250E56E0150E56E0050E56E45EC1AF068
:10017000040EE126092AD8B00A2A032AD8B0042A94
:10018000D8B0052ABBD71950300A07E1300E156EDA
:10019000032AD8B0042AD8B0052A03C0E9FF04C056
:1001A000F3FF055094EC21F02D0A07E1010E146EC7
:1001B000032AD8B0042AD8B0052A03C0E9FF04C036
:1001C000F3FF055094EC21F0200A09E1010E176EAF
:1001D000200E186E032AD8B0042AD8B0052A03C00E
:1001E000E9FF04C0F3FF055094EC21F02B0A07E16E
:1001F000010E176E032AD8B0042AD8B0052A03C00E
:10020000E9FF04C0F3FF055094EC21F0196E800F54
:100210004F0F2EE31950800F460F2AE203C019F04A
:1002200004C01AF005C01BF019C0E9FF1AC0F3FFA3
:100230001B5094EC21F01C6E800F500F13E31C50E8
:10024000800F460F0FE213500A0DF3CF1DF01D5023
:100250001C26D00E1C24136E192AD8B01A2AD8B026
:100260001B2AE2D719C003F01AC004F01BC005F026
:1002700003C0E9FF04C0F3FF055094EC21F02E0AFF
:1002800030E1032AD8B0042AD8B0052A166A03C080
:1002900019F004C01AF005C01BF019C0E9FF1AC01C
:1002A000F3FF1B5094EC21F01C6E800F500F13E3F2
:1002B0001C50800F460F0FE216500A0DF3CF1DF0B1
:1002C0001D501C26D00E1C24166E192AD8B01A2ACE
:1002D000D8B01B2AE2D719C003F01AC004F01BC023
:1002E00005F003C0E9FF04C0F3FF055094EC21F0D2
:1002F000196E6C0A08E1010E0C6E032AD8B0042AAC
:10030000D8B0052A0AD01950680A07E1010E0E6E0E
:10031000032AD8B0042AD8B0052A03C0E9FF04C0D4
:10032000F3FF055094EC21F0750A07E1010E106E01
:10033000032AD8B0042AD8B0052A03C0E9FF04C0B4
:10034000F3FF055094EC21F0196E730A05E1010EDC
:100350000D6E200E156E41D01950780A03E1100E73
:10036000116E3BD01950580A05E1100E116E010EA6
:10037000126E33D01950630A02E1116A2ED019505F
:100380006F0A03E1080E116E28D01950660A03E1C6
:10039000010E0F6E22D01950640A1FE01950690A2D
:1003A0001CE0105005E0FF0E03260422052215D0A4
:1003B0001950E56E0250E56E0150E56E0050E56E95
:1003C00045EC1AF0040EE126092AD8B00A2A032ABD
:1003D000D8B0042AD8B0052A91D60D5021E0065095
:1003E000030F0D6E000E0720196E000E08201A6E06
:1003F0000DC006F019C007F01AC008F0FD0E0D265A
:10040000FF0E19221A220DC0E9FF19C0F3FF1A507E
:100410004CEC21F00D6EF3CF19F0F4CF1AF000D1AF
:100420000F500DE0460E0D6E080E196E000E1A6E7E
:10043000040E0626000E072208221668F1D0166860
:100440000C5023E00650040F0C6E000E07200F6EB8
:10045000000E08201B6E0CC006F00FC007F01BC07A
:1004600008F0FC0E0C26FF0E0F221B220CC0E9FF29
:100470000FC0F3FF1B502CEC21F00C6EF3CF0FF0EC
:10048000F4CF1BF0E9CF1CF06AD00E5032E00650DA
:10049000020F0E6E000E07201D6E000E08201E6E4D
:1004A0000EC006F01DC007F01EC008F0FE0E0E269E
:1004B000FF0E1D221E220EC0E9FF1DC0F3FF1E50BD
:1004C0007EEC21F00E6E0EC00CF0E86A0EBEFF0E40
:1004D0000F6E1B6E1C6E11500A0A03E11050D8B447
:1004E0003ED00C500E6E0EC00CF00F6A1B6A1C6AD8
:1004F00036D00650020F0E6E000E07201D6E000E45
:1005000008201E6E0EC006F01DC007F01EC008F0C9
:10051000FE0E0E26FF0E1D221E220EC0E9FF1DC07C
:10052000F3FF1E507EEC21F00E6EF3CF1DF00EC0D7
:100530000CF01DC00FF0E86A1DBEFF0E1B6E1C6E96
:1005400011500A0A02E110500AE00C500E6E0F50D2
:100550001D6E0EC00CF01DC00FF01B6A1C6A0E0E43
:10056000196E210E0D6E800E1A6E1150D8B440D047
:10057000105013E01150E56E0E0EE56E210EE56E83
:100580001C50E56E1B50E56E0F50E56E0C50E56E8D
:10059000E2EC16F0070EE12612D01150E56E0E0EB9
:1005A000E56E210EE56E1C50E56E1B50E56E0F509A
:1005B000E56E0C50E56E6CEC1DF0070EE126175051
:1005C0002FE00DC0E9FF19C0F3FF1A5094EC21F0A1
:1005D0002D0A26E0FF0E0D2619221A2218C0E5FF6B
:1005E0000DC0E9FF19C0F3FF1A50C9EC21F018D073
:1005F0000CC0E5FF0DC0E9FF19C0F3FF1A50C9ECAC
:1006000021F00D50010F0C6E000E19200E6E000E21
:100610001A20E56A0CC0E9FF0EC0F3FFC9EC21F017
:100620000DC00CF019C00EF01AC00FF013C010F07E
:10063000105011E00CC0E9FF0EC0F3FF0F5094EC16
:1006400021F0176E175007E00C2AD8B00E2AD8B048
:100650000F2A1006EDD710C013F014501FE109C087
:100660000CF00AC00EF010C00FF00F5011E0155042
:10067000E56E0250E56E0150E56E0050E56E45EC0A
:100680001AF0040EE1260C2AD8B00E2A0F06EDD778
:100690000CC009F00EC00AF00FC013F016C00CF029
:1006A0000DC00DF019C00EF01AC00FF009C010F007
:1006B0000AC015F00DC0E9FF0EC0F3FF0F5094EC17
:1006C00021F0166E1650D8B440D00CC016F0176A40
:1006D000161E171E1650171005E00CC016F00C065B
:1006E000165033E00DC0E9FF0EC0F3FF0F5094EC3D
:1006F00021F0116E125010E01150E56E67EC21F000
:10070000166EE12A165004E0DF0E1114166E02D0A8
:1007100011C016F016C011F01150E56E0250E56ED2
:100720000150E56E0050E56E45EC1AF0040EE1262E
:100730000D2AD8B00E2AD8B00F2A102AD8B0152A00
:100740001350D8B4B7D71306B5D710C009F015C0E9
:100750000AF014502DE010C00CF015C00DF013C0BD
:100760000EF00E5021E0200EE56E0250E56E0150B5
:10077000E56E0050E56E45EC1AF0040EE1260C2AF9
:10078000D8B00D2A0E06EDD70B50E56E0250E56E7F
:100790000150E56E0050E56E45EC1AF0040EE126BE
:1007A000092AD8B00A2A04D00CC009F00DC00AF0FA
:1007B000032AD8B0042AD8B0052A7EEF00F00AC078
:1007C000F3FF0950E4CF1EF0E4CF1DF0E4CF1CF09E
:1007D000E4CF1BF0E4CF1AF0E4CF19F0E4CF18F027
:1007E000E4CF17F0E4CF16F0E4CF15F0E4CF14F027
:1007F000E4CF13F0E4CF12F0E4CF11F0E4CF10F027
:10080000E4CF0FF0E4CF0EF0E4CF0DF0E4CF0CF026
:10081000E4CF0BF0E4CF0AF0E4CF09F0E4CF08F026
:10082000E4CF07F0E4CF06F0E4CF05F0E4CF04F026
:10083000E4CF03F0E4CF02F0E4CF01F0E4CF00F026
:10084000E4CFD9FF12003C4E4F20464C4F41543E5E
:100850000000D9CFE5FFE1CFD9FF00C0E5FF01C01F
:10086000E5FF02C0E5FF03C0E5FF04C0E5FF05C0EA
:10087000E5FF06C0E5FF07C0E5FF08C0E5FF48CF7C
:1008800000F049CF01F00F014151D8B47DD0010EE5
:100890000F01515DD8A074D00C0E0F01515DD8B07E
:1008A0006FD00F015105026E09C0E5FF0AC0E5FFD8
:1008B0000A6A02340A36E8340A36FC0B096E000E66
:1008C000FB6E080EFA6EDE0E09260A50FA22D8B028
:1008D000FB2A0950E4CF0AF0E4CF09F0F96E85EF66
:1008E00004F089EF04F08DEF04F091EF04F095EF40
:1008F00004F099EF04F09DEF04F0A1EF04F0A5EFF0
:1009000004F0A9EF04F0B2EF04F0050E0F01516FEF
:1009100037D0030E0F01516F33D0040E0F01516F0A
:100920002FD0050E0F01516F2BD0090E0F01516F03
:1009300027D0070E0F01516F23D0080E0F01516F02
:100940001FD0090E0F01516F1BD0010E0F01516F07
:1009500017D0010E0F01506F91929194090E0F0163
:10096000516F0ED0010E0F01506F4DCF4BFF4CCF8A
:100970004AFF0F014F6B91929194090E0F01516F35
:100980000F01416B0EEF07F00F014251D8B40EEF8B
:1009900007F0010E0F01515DD8A00CEF07F00C0E0F
:1009A0000F01515DD8B00CEF07F00F015105026E39
:1009B00009C0E5FF0AC0E5FF0A6A02340A36E834D6
:1009C0000A36FC0B096E000EFB6E090EFA6EE60E7F
:1009D00009260A50FA22D8B0FB2A0950E4CF0AF0BF
:1009E000E4CF09F0F96E09EF05F00EEF05F055EFD1
:1009F00005F012EF06F0CFEF06F0D3EF06F0D7EFD9
:100A000006F0E3EF06F0EFEF06F0F0EF06F001EF8F
:100A100007F0020E0F01516F0CEF07F00F01465166
:100A2000E56E0F014551E56E0F014451E56E0F0172
:100A30004351E56EBEEC17F0026EF3CF03F0F4CF36
:100A400004F0E9CF05F0040EE126480EE56EA70E8E
:100A5000E56EA20EE56E800EE56E0550E56E045063
:100A6000E56E0350E56E0250E56EFAEC0BF0026E97
:100A7000F3CF03F0F4CF04F0E9CF05F0080EE12640
:100A80000550E56E0450E56E0350E56E0250E56ECC
:100A90003FEC1BF00F01436FF3CF44FFF4CF45FF52
:100AA000E9CF46FF040EE126B7D10F014651E56EAE
:100AB0000F014551E56E0F014451E56E0F014351A1
:100AC000E56EBEEC17F0026EF3CF03F0F4CF04F046
:100AD000E9CF05F0040EE126450EE56EB20EE56E97
:100AE000CF0EE56E770EE56E0550E56E0450E56EAF
:100AF0000350E56E0250E56EFAEC0BF0026EF3CF98
:100B000003F0F4CF04F0E9CF05F0080EE12605501C
:100B1000E56E0450E56E0350E56E0250E56E3FEC65
:100B20001BF00F01436FF3CF44FFF4CF45FFE9CF34
:100B300046FF040EE1263C0EE56E00C0E5FF33ECF7
:100B400020F0006EE450E4500050E56ECFEC20F051
:100B5000006EF3CF02F0F4CF03F0E9CF04F0E12A06
:100B60000450E56E0350E56E0250E56E0050E56EF0
:100B7000480EE56EA70EE56EA20EE56E800EE56EE0
:100B800019EC0AF0006EF3CF02F0F4CF03F0E9CFD6
:100B900004F0080EE1260F014651E56E0F014551A4
:100BA000E56E0F014451E56E0F014351E56EBEEC59
:100BB00017F0056EF3CF06F0F4CF07F0E9CF08F099
:100BC000040EE1260450E56E0350E56E0250E56E1A
:100BD0000050E56E0850E56E0750E56E0650E56E74
:100BE0000550E56E7CEC18F0006EF3CF02F0F4CF08
:100BF00003F0E9CF04F0080EE1260450E56E03503F
:100C0000E56E0250E56E0050E56E3FEC1BF00F0103
:100C1000436FF3CF44FFF4CF45FFE9CF46FF040E07
:100C2000E126FAD00F014651E56E0F014551E56E00
:100C30000F014451E56E0F014351E56EBEEC17F014
:100C4000006EF3CF02F0F4CF03F0E9CF04F0040E0E
:100C5000E126420EE56EBE0EE56EBB0EE56E2A0E77
:100C6000E56E0450E56E0350E56E0250E56E0050EF
:100C7000E56EFAEC0BF0006EF3CF02F0F4CF03F068
:100C8000E9CF04F0080EE1260450E56E0350E56E4E
:100C90000250E56E0050E56E3FEC1BF00F01436F14
:100CA000F3CF44FFF4CF45FFE9CF46FF040EE12622
:100CB0003C0EE56E01C0E5FF33EC20F0016EE45020
:100CC000E4500150E56ECFEC20F0006EF3CF01F060
:100CD000F4CF02F0E9CF03F0E12A0350E56E0250B1
:100CE000E56E0150E56E0050E56E450EE56EB20E04
:100CF000E56ECF0EE56E770EE56E19EC0AF0006E2C
:100D0000F3CF01F0F4CF02F0E9CF03F0080EE126B3
:100D10000F014651E56E0F014551E56E0F0144513B
:100D2000E56E0F014351E56EBEEC17F0046EF3CF94
:100D300005F0F4CF06F0E9CF07F0040EE1260350EA
:100D4000E56E0250E56E0150E56E0050E56E07500D
:100D5000E56E0650E56E0550E56E0450E56E7CECE0
:100D600018F0006EF3CF01F0F4CF02F0E9CF03F0FA
:100D7000080EE1260350E56E0250E56E0150E56E67
:100D80000050E56E3FEC1BF00F01436FF3CF44FFC3
:100D9000F4CF45FFE9CF46FF040EE1263DD0060E15
:100DA0000F01516F39D0010E0F014E1B35D00F01CD
:100DB0004A51170A03E10F014A6B02D00F014A2B77
:100DC0004ACF4CFF29D00F014B513B0A03E10F01E1
:100DD0004B6B02D00F014B2B4BCF4DFF1DD01CD0C6
:100DE0000C0E0F014F5D18E2050EE56ED9EC1EF0FA
:100DF000E12A0F014F2B919291940B0E0F01516F2D
:100E00000BD00C0E0F014F5D07E2050EE56ED9EC1D
:100E10001EF0E12A0F014F2B0F01426BE4CF08F0C7
:100E2000E4CF07F0E4CF06F0E4CF05F0E4CF04F020
:100E3000E4CF03F0E4CF02F0E4CF01F0E4CF00F020
:100E4000E4CFD9FF1200D9CFE5FFE1CFD9FF00C031
:100E5000E5FF01C0E5FF02C0E5FF03C0E5FF04C0F8
:100E6000E5FF05C0E5FF06C0E5FF07C0E5FF08C0D8
:100E7000E5FF09C0E5FF0AC0E5FF0BC0E5FF0CC0B8
:100E8000E5FF0DC0E5FF0EC0E5FF010E0F01515D4E
:100E9000D8A0D0EF09F00C0E0F01515DD8B0D0EF03
:100EA00009F00F015105006E0FC0E5FF10C0E5FF0E
:100EB000106A00341036E8341036FC0B0F6E000E4A
:100EC000FB6E0E0EFA6EDE0E0F261050FA22D8B010
:100ED000FB2A0F50E4CF10F0E4CF0FF0F96E85EF4E
:100EE00007F09DEF07F0CAEF07F0F6EF07F022EFEB
:100EF00008F039EF08F06AEF08F08FEF08F0B4EF70
:100F000008F01DEF09F049EF09F00F0E016E210EF8
:100F1000006E800E026E000EE56E220EE56EA80ECB
:100F2000E56E0250E56E0150E56E0050E56EB5ECE1
:100F30001BF0060EE126E6EF09F049CF00F0016A4A
:100F400048CF02F0036A47CF04F0056A0F0E076E20
:100F5000210E066E800E086E0150E56E0050E56EA3
:100F60000350E56E0250E56E0550E56E0450E56EE7
:100F7000000EE56E220EE56ECA0EE56E0850E56EB7
:100F80000750E56E0650E56EB5EC1BF00C0EE12641
:100F9000E6EF09F049CF00F0016A48CF02F0036A9A
:100FA00047CF04F0056A0F0E076E210E066E800E05
:100FB000086E0150E56E0050E56E0350E56E02507C
:100FC000E56E0550E56E0450E56E000EE56E220EEE
:100FD000E56EF20EE56E0850E56E0750E56E0650C0
:100FE000E56EB5EC1BF00C0EE126F0D149CF00F018
:100FF000016A48CF02F0036A47CF04F0056A0F0E7A
:10100000076E210E066E800E086E0150E56E0050D0
:10101000E56E0350E56E0250E56E0550E56E045036
:10102000E56E000EE56E230EE56E1A0EE56E0850B5
:10103000E56E0750E56E0650E56EB5EC1BF00C0E44
:10104000E126C4D10F0E016E210E006E800E026EDD
:10105000000EE56E230EE56E420EE56E0250E56E63
:101060000150E56E0050E56EB5EC1BF0060EE12672
:10107000ADD10F014E5117E00F0E016E210E006E23
:10108000800E026E000EE56E230EE56E640EE56EB8
:101090000250E56E0150E56E0050E56EB5EC1BF0B8
:1010A000060EE12693D10F0E016E210E006E800E0A
:1010B000026E000EE56E230EE56E860EE56E0250A2
:1010C000E56E0150E56E0050E56EB5EC1BF0060EC6
:1010D000E1267CD14BCF00F0016A4ACF02F0036ACF
:1010E0000F0E056E210E046E800E066E0150E56E29
:1010F0000050E56E0350E56E0250E56E000EE56EA1
:10110000230EE56EA80EE56E0650E56E0550E56E01
:101110000450E56EB5EC1BF00A0EE12657D14BCF1B
:1011200000F0016A4ACF02F0036A0F0E056E210E2D
:10113000046E800E066E0150E56E0050E56E0350A1
:10114000E56E0250E56E000EE56E230EE56ECE0EE6
:10115000E56E0650E56E0550E56E0450E56EB5ECA3
:101160001BF00A0EE12632D10F014E513AE04BCF6F
:1011700000F0016A4ACF02F0036A49CF04F0056A21
:1011800048CF06F0076A47CF08F0096A0F0E0B6ECA
:10119000210E0A6E800E0C6E0150E56E0050E56E59
:1011A0000350E56E0250E56E0550E56E0450E56EA5
:1011B0000750E56E0650E56E0950E56E0850E56E85
:1011C000000EE56E230EE56EF40EE56E0C50E56E36
:1011D0000B50E56E0A50E56EB5EC1BF0100EE126E3
:1011E000F5D049CF00F0016A48CF02F0036A47CF3B
:1011F00004F0056A0F0E076E210E066E800E086E53
:101200000150E56E0050E56E0350E56E0250E56E4C
:101210000550E56E0450E56E000EE56E240EE56E99
:10122000200EE56E0850E56E0750E56E0650E56E3F
:10123000B5EC1BF00C0EE126C9D049CF00F0016AD5
:1012400048CF02F0036A47CF04F0056A0F0E076E1D
:10125000210E066E800E086E0150E56E0050E56EA0
:101260000350E56E0250E56E0550E56E0450E56EE4
:10127000000EE56E240EE56E480EE56E0850E56E34
:101280000750E56E0650E56EB5EC1BF00C0EE1263E
:101290009DD00A0E0F014F5DD8B041D04DCF00F068
:1012A000016A4CCF02F0036A4FCF04F0056A49CFC0
:1012B00006F0076A48CF08F0096A47CF0AF00B6AC0
:1012C0000F0E0D6E210E0C6E800E0E6E0150E56E2F
:1012D0000050E56E0350E56E0250E56E0550E56E78
:1012E0000450E56E0750E56E0650E56E0950E56E58
:1012F0000850E56E0B50E56E0A50E56E000EE56E87
:10130000240EE56E700EE56E0E50E56E0D50E56E26
:101310000C50E56EB5EC1BF0120EE12657D04DCF08
:1013200000F0016A4CCF02F0036A4FCF04F0056A67
:1013300049CF06F0076A48CF08F0096A47CF0AF09C
:101340000B6A0F0E0D6E210E0C6E800E0E6E01508C
:10135000E56E0050E56E0350E56E0250E56E0550F7
:10136000E56E0450E56E0750E56E0650E56E0950D7
:10137000E56E0850E56E0B50E56E0A50E56E000E06
:10138000E56E240EE56E9C0EE56E0E50E56E0D507A
:10139000E56E0C50E56EB5EC1BF0120EE12616D092
:1013A0000F0E016E210E006E800E026E000EE56EB5
:1013B000240EE56EC80EE56E0250E56E0150E56E36
:1013C0000050E56EB5EC1BF0060EE1260F0E016E27
:1013D000210E006E800E026E0250E56E0150E56E29
:1013E0000050E56E000EE56E9CEC1CF0040EE1264C
:1013F000E4CF0EF0E4CF0DF0E4CF0CF0E4CF0BF02F
:10140000E4CF0AF0E4CF09F0E4CF08F0E4CF07F02E
:10141000E4CF06F0E4CF05F0E4CF04F0E4CF03F02E
:10142000E4CF02F0E4CF01F0E4CF00F0E4CFD9FF45
:101430001200D9CFE5FFE1CFD9FF00C0E5FF01C021
:10144000E5FF02C0E5FF03C0E5FF04C0E5FF05C0FE
:10145000E5FF06C0E5FF07C0E5FF08C0E5FF09C0DE
:10146000E5FF0AC0E5FF0BC0E5FF0CC0E5FF0EC0BD
:10147000E5FF0FC0E5FF020EDBCF00F0030EDBCF70
:1014800001F0040EDBCF02F0050EDBCF03F0060EF9
:10149000DBCF04F0070EDBCF05F0080EDBCF06F044
:1014A000090EDBCF07F000500E01456F0150466F6B
:1014B0000250476F0350486F04500E01496F0550AA
:1014C0004A6F06504B6F07504C6F0E014551461145
:1014D0004711481106E00E0149514A114B114C11B8
:1014E00005E1E96AF46AF36AE86A63D10E014845E6
:1014F000010B006E016A026A036A010E0016016A9E
:10150000026A036A0E014C45010B046E056A066A05
:10151000076A010E0416056A066A076A0450001A73
:101520000550011A0650021A0750031A0E014735DA
:101530004835016E036A046A026A820E0126FF0EB4
:101540000222032204220E014B354C35036E046A3D
:1015500001C007F002C008F007500326085004221B
:101560000350016E0450026E0E014551036E465148
:10157000046E7F0E4715056E058E0350456F0450AF
:10158000466F0550476F486B0E014951036E4A5133
:10159000046E7F0E4B15056E058E0350496F045087
:1015A0004A6F05504B6F4C6B0E014651036E47510D
:1015B000046E4851056E0E014A51076E4B51086E7C
:1015C0004C51E56AE56E0850E56E0750E56EE56A38
:1015D0000550E56E0450E56E0350E56ED8EC14F04E
:1015E000036EF3CF04F0F4CF05F0E9CF06F0080E58
:1015F000E1260E014551076E0E014A510B6E4B510B
:101600000C6E4C51E56AE56E0C50E56E0B50E56EC4
:10161000E56AE56AE56A0750E56ED8EC14F0F3CFA9
:1016200008F0F4CF09F0E9CF0AF0080EE1260850DF
:10163000076E0950086E0A50096E0A6A07500326A1
:1016400008500422095005220A5006220E01495171
:10165000076E0E0146510B6E47510C6E4851E56AFC
:10166000E56E0C50E56E0B50E56EE56AE56AE56ADD
:101670000750E56ED8EC14F0F3CF08F0F4CF09F082
:10168000E9CF0AF0080EE1260850076E0950086EEF
:101690000A50096E0A6A07500326085004220950AE
:1016A00005220A500622400E0326000E04220522BF
:1016B000062206AE0ED0400E0326000E042205229E
:1016C00006220450036E0550046E0650056E066A2D
:1016D00012D003340434036E046A04360550E8441F
:1016E000FE0B041205340634056E066A0636FF0E3C
:1016F0000126D8A00206059E0250800F7F0F02E14E
:10170000000E015C19E3005006E0076A086A096AE6
:10171000800E0A6E04D0076A086A096A0A6A098E8E
:101720007F0E0A1207500E01456F0850466F095090
:10173000476F0A50486F35D0D88002AED89006E384
:101740000E01456B466B476B486B2BD0005006E093
:10175000006A076A086A800E096E04D0006A076A88
:10176000086A096AE86A023001300F6E0E6A0E32AA
:101770000C6A0C50001207120E5008120F5009127A
:1017800000500312075004120850051209500612A7
:1017900003500E01456F0450466F0550476F0650C9
:1017A000486F48CEE9FF47CEF4FF46CEF3FF0E0167
:1017B0004551E4CF0FF0E4CF0EF0E4CF0CF0E4CFCE
:1017C0000BF0E4CF0AF0E4CF09F0E4CF08F0E4CF67
:1017D00007F0E4CF06F0E4CF05F0E4CF04F0E4CF67
:1017E00003F0E4CF02F0E4CF01F0E4CF00F0E4CF67
:1017F000D9FF1200D9CFE5FFE1CFD9FF00C0E5FF47
:1018000001C0E5FF02C0E5FF03C0E5FF04C0E5FF3E
:1018100005C0E5FF06C0E5FF07C0E5FF08C0E5FF1E
:1018200009C0E5FF0AC0E5FF0BC0E5FF0CC0E5FFFE
:101830000DC0E5FF0EC0E5FF0FC0E5FF10C0E5FFDE
:10184000020EDBCF00F0030EDBCF01F0040EDBCF86
:1018500002F0050EDBCF03F0060EDBCF04F0070E1F
:10186000DBCF05F0080EDBCF06F0090EDBCF07F06B
:10187000086A096A0A6A0B6A00500E013D6F01503E
:101880003E6F02503F6F0350406F04500E01416F96
:101890000550426F0650436F0750446F0E013D5193
:1018A0003E113F11401109E144CEE9FF43CEF4FF60
:1018B00042CEF3FF0E01415140D10E014151421180
:1018C0004311441109E140CEE9FF3FCEF4FF3ECE83
:1018D000F3FF0E013D5131D10E013F354035006E11
:1018E000016A0136026A036A016A026A036A0E012A
:1018F00043354435026E190F046E000E0320800F2D
:10190000F36E0150800FF35C02E10050045C09E2C9
:1019100040CEE9FF3FCEF4FF3ECEF3FF0E013D5136
:101920000CD10050190F046E000E0120800FF36ED1
:101930000350800FF35C02E10250045C09E244CEE4
:10194000E9FF43CEF4FF42CEF3FF0E014151F5D043
:101950000E013D51046E3E51056E7F0E3F15066E21
:10196000076A068E0E0141510C6E42510D6E7F0EBC
:1019700043150E6E0F6A0E8E0E014045010B106E60
:1019800010A00AD0071E061E051E046C05E1052ADC
:1019900003E1062AD8B4072A0E014445010B106E54
:1019A00010A00AD00F1E0E1E0D1E0C6C05E10D2A94
:1019B00003E10E2AD8B40F2A0350800FF36E0150B2
:1019C000800FF35C02E10050025C1BE20250005CFD
:1019D000106E03500158105032E00BE6E86CD890BE
:1019E0000FBED8800F320E320D320C32010FF8E3E9
:1019F00026D0D8900C360D360E360F36010FFAE38E
:101A00001ED00050025C106E01500358105013E0BD
:101A10000BE6E86CD89007BED88007320632053254
:101A20000432010FF8E307D0D890043605360636A5
:101A30000736010FFAE302C000F003C001F00C50BA
:101A400004260D5005220E5006220F500722D88082
:101A500007AED89010E3071E061E051E046C05E1B4
:101A6000052A03E1062AD8B4072A086A096A0A6A1D
:101A7000800E0B6E0AD0045005100610071005E109
:101A8000E96AF46AF36AE86A58D004C002F005C053
:101A900003F006C00CF007C00DF0000E0D5C08E16D
:101AA000800E0C5C05E1000E035C02E1000E025C9E
:101AB0000AE204500426053606360736FF0E0026D5
:101AC000D8A00106E2D7075011E004A006D0020E0C
:101AD0000426000E052206220722073407320632AA
:101AE00005320432002AD8B0012AEDD7069EE86AF2
:101AF000013000300F6E0E6A0E320C6A0C50081264
:101B000009120E500A120F500B12085004120950FD
:101B100005120A5006120B50071204500E013D6FB9
:101B200005503E6F06503F6F0750406F40CEE9FFB3
:101B30003FCEF4FF3ECEF3FF3D51E4CF10F0E4CFB3
:101B40000FF0E4CF0EF0E4CF0DF0E4CF0CF0E4CFD3
:101B50000BF0E4CF0AF0E4CF09F0E4CF08F0E4CFD3
:101B600007F0E4CF06F0E4CF05F0E4CF04F0E4CFD3
:101B700003F0E4CF02F0E4CF01F0E4CF00F0E4CFD3
:101B8000D9FF1200D9CFE5FFE1CFD9FF00C0E5FFB3
:101B900001C0E5FF02C0E5FF03C0E5FF04C0E5FFAB
:101BA00005C0E5FF06C0E5FF07C0E5FF0F01465190
:101BB000E56E0F014551E56E0F014451E56E0F01D1
:101BC0004351E56EBEEC17F0006EF3CF01F0F4CF99
:101BD00002F0E9CF03F0040EE126420EE56EBE0EE0
:101BE000E56EBB0EE56E2A0EE56E0350E56E025003
:101BF000E56E0150E56E0050E56E81EC0FF0006E71
:101C0000F3CF01F0F4CF02F0E9CF03F0080EE126A4
:101C10000350E56E0250E56E0150E56E0050E56E32
:101C20003FEC1BF00F01546FF3CF55FFF4CF56FF7D
:101C3000E9CF57FF040EE1260F014651E56E0F0173
:101C40004551E56E0F014451E56E0F014351E56EBC
:101C5000000EE56E000EE56E000EE56E0A0EE56EF6
:101C6000D8EC14F0006EF3CF01F0F4CF02F0E9CF1E
:101C700003F0080EE1260350E56E0250E56E0150B8
:101C8000E56E0050E56EBEEC17F0006EF3CF01F08C
:101C9000F4CF02F0E9CF03F0040EE126420EE56E28
:101CA000BE0EE56EBB0EE56E2A0EE56E0350E56EC8
:101CB0000250E56E0150E56E0050E56E81EC0FF0CC
:101CC000006EF3CF01F0F4CF02F0E9CF03F0080E7D
:101CD000E1260350E56E0250E56E0150E56E0050BE
:101CE000E56E3FEC1BF00F01586FF3CF59FFF4CFB7
:101CF0005AFFE9CF5BFF040EE126000EE56E000EF1
:101D0000E56E000EE56E0A0EE56E0F015B51E56EA5
:101D10000F015A51E56E0F015951E56E0F015851EF
:101D2000E56E26EC19F0006EF3CF01F0F4CF02F06F
:101D3000E9CF03F0080EE12600500E01696F000E96
:101D4000E56E000EE56E0E0EE56E100EE56E0F01EF
:101D50005751E56E0F015651E56E0F015551E56E75
:101D60000F015451E56EB8EC19F0006EF3CF01F09D
:101D7000F4CF02F0E9CF03F0080EE126000EE56E85
:101D8000000EE56E000EE56E180EE56E0350E56E72
:101D90000250E56E0150E56E0050E56E26EC19F03C
:101DA000046EF3CF05F0F4CF06F0E9CF07F0080E8C
:101DB000E12604500E016A6F0350E56E0250E56E95
:101DC0000150E56E0050E56E000EE56E000EE56E0A
:101DD0000E0EE56E100EE56ED8EC14F0006EF3CF2B
:101DE00001F0F4CF02F0E9CF03F0080EE126005035
:101DF0000F01545D006E01500F015559016E0250E4
:101E00000F015659026E03500F015759036E000E11
:101E1000E56E000EE56E000EE56E3C0EE56E0350BD
:101E2000E56E0250E56E0150E56E0050E56EB8ECCF
:101E300019F0006EF3CF01F0F4CF02F0E9CF03F018
:101E4000080EE12600500E016B6F0F015451006E19
:101E50000E016A51100DF3CF01F00150005E0E012A
:101E60006B513C0DF3CF01F00150005C0E016C6F23
:101E70000F0149510E016C1902E06CCE49FF0F01B0
:101E800048510E016B1902E06BCE48FF0F0147511C
:101E90000E016A1902E06ACE47FF0F0152510EE1AE
:101EA000050E0E01695D0AE291800F0151510A0A87
:101EB00002E191829184010E0F01526F0F01525184
:101EC0000DE0050E0E01695D09E391900F0151517E
:101ED0000A0A02E1919291940F01526BE4CF07F04C
:101EE000E4CF06F0E4CF05F0E4CF04F0E4CF03F054
:101EF000E4CF02F0E4CF01F0E4CF00F0E4CFD9FF6B
:101F00001200D9CFE5FFE1CFD9FF00C0E5FF01C046
:101F1000E5FF02C0E5FF03C0E5FF04C0E5FF05C023
:101F2000E5FF06C0E5FF07C0E5FF08C0E5FF09C003
:101F3000E5FF0AC0E5FF0BC0E5FF0CC0E5FF0DC0E3
:101F4000E5FF0EC0E5FF0FC0E5FF10C0E5FF11C0C3
:101F5000E5FF12C0E5FF020EDBCF00F0030EDBCF82
:101F600001F0040EDBCF02F0050EDBCF03F0060E0E
:101F7000DBCF04F0070EDBCF05F0080EDBCF06F059
:101F8000090EDBCF07F000500E014D6F01504E6F70
:101F900002504F6F0350506F04500E01516F0550A7
:101FA000526F0650536F0750546F0E014F35503526
:101FB000006E016A0136026A036A016A026A036AF4
:101FC0000E015335543500C006F0076A065C026EF8
:101FD00003500758036E0250006E0350016E7E0ED0
:101FE0000026D8B0012A0E015045010B026E010EE9
:101FF00002160E015445010B066E010E0616065020
:10200000021A51515211531154110EE1516B526B7E
:10201000C00E536F7F0E546F54CEE9FF53CEF4FFC2
:1020200052CEF3FF5151DED00E014D514E114F11E2
:10203000501105E1E96AF46AF36AE86AD3D00E0147
:102040004D51036E4E51046E7F0E4F15056E066A9C
:10205000058E0E015151076E5251086E7F0E5315B9
:10206000096E0A6A098E0650800FF36E0A50800FBF
:10207000F35C08E10950055C05E10850045C02E1ED
:102080000750035C09E20350032604360536063682
:10209000FF0E0026D8A001060B6A0C6A0D6A010E1D
:1020A0000E6E0F6A106A116A126A0B500C100D1036
:1020B0000E102BE00650800FF36E0A50800FF35C79
:1020C00008E10950055C05E10850045C02E1075095
:1020D000035C10E30B500F120C5010120D50111234
:1020E0000E5012120750035E0850045A0950055A48
:1020F0000A50065A03500326043605360636D89091
:102100000E320D320C320B32D0D70F2AD8B0102A33
:10211000D8B0112AD8B0122A002AD8B0012A123415
:102120001232113210320F32119E0150800F7F0F88
:1021300002E1000E005C19E3025006E0036A046A43
:10214000056A800E066E04D0036A046A056A066A90
:10215000058E7F0E061203500E014D6F04504E6F18
:1021600005504F6F0650506F35D0D88001AED890D3
:1021700006E30E014D6B4E6B4F6B506B2BD0025034
:1021800006E0026A036A046A800E056E04D0026AE1
:10219000036A046A056AE86A013000300B6E0A6A55
:1021A0000A32086A0850021203120A5004120B5035
:1021B000051202500F120350101204501112055054
:1021C00012120F500E014D6F10504E6F11504F6F85
:1021D0001250506F50CEE9FF4FCEF4FF4ECEF3FFBA
:1021E0000E014D51E4CF12F0E4CF11F0E4CF10F026
:1021F000E4CF0FF0E4CF0EF0E4CF0DF0E4CF0CF01D
:10220000E4CF0BF0E4CF0AF0E4CF09F0E4CF08F01C
:10221000E4CF07F0E4CF06F0E4CF05F0E4CF04F01C
:10222000E4CF03F0E4CF02F0E4CF01F0E4CF00F01C
:10223000E4CFD9FF1200E8CFE5FFD8CFE5FFE0CF2C
:10224000E5FFF3CFE5FFF4CFE5FFE9CFE5FFEACF08
:10225000E5FFFACFE5FFFBCFE5FFD9CFE5FFE1CF03
:10226000D9FFF2A40CD00F01432B02E30F01442B42
:1022700002E30F01452B02E30F01462BF294E4CF5A
:10228000D9FFE4CFFBFFE4CFFAFFE4CFEAFFE4CFCE
:10229000E9FFE4CFF4FFE4CFF3FFE4CFE0FFE4CFC6
:1022A000D8FFE4CFE8FF1000446F20796F752077E6
:1022B000616E7420746F20207365742074686520CB
:1022C00074696D65203F20200000205B2530327549
:1022D0005D3A2025303275203A2025303275202095
:1022E00020202020202020202020202020202020EE
:1022F0000000202025303275203A5B253032755D94
:102300003A20253032752020202020202020202037
:102310002020202020202020000020202530327581
:10232000203A2025303275203A5B253032755D2009
:10233000202020202020202020202020202020209D
:102340000000446F20796F752077616E7420746F80
:1023500020207365742074686520616C61726D2043
:102360003F2000002020416C61726D205B4F4E20A9
:102370005D20202020202020202020202020202020
:102380002020202000002020416C61726D205B4FD6
:1023900046465D20202020202020202020202020B4
:1023A000202020202020000020202020416C61726D
:1023B0006D20617420202020202020205B253032D9
:1023C000755D3A2025303275202020200000202025
:1023D0002020416C61726D2061742020202020201B
:1023E00020202025303275203A5B253032755D2063
:1023F0002020000020202020253032753A25303260
:10240000753A2530327520202020416C61726D2094
:102410004F4E2020253032753A253032752000008D
:1024200020202020253032753A253032753A25306B
:10243000327520202020202020416C61726D2020E8
:102440004F464620202000002020202025303275D5
:102450003A253032753A2530327520202020202050
:102460004920616D2072696E67696E6721200000E6
:1024700020202020253032753A253032753A25301B
:10248000327520202020536E6F6F7A6520257520CD
:1024900020253032753A253032752000202020204A
:1024A000253032753A253032753A25303275202084
:1024B0002020536E6F6F7A65202575202530327588
:1024C0003A253032752000002A2A2A2A2045525205
:1024D0004F52202A2A2A2A2A2A2A2A2A20455252B8
:1024E0004F52202A2A2A2A2A0000D9CFE5FFE1CF1D
:1024F000D9FF00C0E5FF01C0E5FF02C0E5FF03C052
:10250000E5FF04C0E5FF05C0E5FF06C0E5FF07C025
:10251000E5FF08C0E5FF020EE56E000EE56E9EECDD
:1025200020F0020EE126480E006E0D0E016E026ACA
:10253000036A00C004F001C005F002C006F003C049
:1025400007F0FF0E0026FF0E0122FF0E0222FF0EF3
:1025500003220450051006100710EBE1006A00C0CA
:1025600001F0026A000E025C02E1100E015CD8B0BC
:1025700057D0000E0024016E026A0F0E022201C025
:10258000E9FF02C0EAFFEFCF01F0015019E100C0FE
:1025900001F001C002F0036A000E035C02E1100EBC
:1025A000025C0EE2000E0124026E036A0F0E03228B
:1025B00002C0E9FF03C0EAFF200EEF6E012AE9D74F
:1025C000000E0024016E026A0F0E022201C0E9FF14
:1025D00002C0EAFFEFCF01F00150E56E010EE56E9B
:1025E0009EEC20F0020EE126550E016E026A036A8F
:1025F000046A01C005F002C006F003C007F004C081
:1026000008F0FF0E0126FF0E0222FF0E0322FF0E2E
:1026100004220550061007100810EBE1002A9FD78E
:10262000C00EE56E000EE56E9EEC20F0020EE12677
:10263000550E006E016A026A036A00C004F001C010
:1026400005F002C006F003C007F0FF0E0026FF0EE3
:102650000122FF0E0222FF0E032204500510061075
:102660000710EBE1100E006E00C001F0026A000ED0
:10267000025C02E1200E015CD8B057D0000E0024AD
:10268000016E026A0F0E022201C0E9FF02C0EAFFDA
:10269000EFCF01F0015019E100C001F001C002F0DC
:1026A000036A000E035C02E1200E025C0EE2000EE3
:1026B0000124026E036A0F0E032202C0E9FF03C069
:1026C000EAFF200EEF6E012AE9D7000E0024016E0A
:1026D000026A0F0E022201C0E9FF02C0EAFFEFCF3B
:1026E00001F00150E56E010EE56E9EEC20F0020E49
:1026F000E126550E016E026A036A046A01C005F004
:1027000002C006F003C007F004C008F0FF0E012667
:10271000FF0E0222FF0E0322FF0E042205500610B8
:1027200007100810EBE1002A9FD7E4CF08F0E4CFB0
:1027300007F0E4CF06F0E4CF05F0E4CF04F0E4CFF7
:1027400003F0E4CF02F0E4CF01F0E4CF00F0E4CFF7
:10275000D9FF1200D9CFE5FFE1CFD9FF00C0E5FFD7
:1027600001C0E5FF02C0E5FF03C0E5FF04C0E5FFCF
:1027700005C0E5FF06C0E5FF07C0E5FF08C0E5FFAF
:10278000000EE56E200EE56E200EE56E0F0EE56E76
:10279000000EE56E07EC1DF0050EE1260F01206B23
:1027A00090909092966A999299949990A00E006E4A
:1027B000090E016E010E026E036A00C004F001C032
:1027C00005F002C006F003C007F0FF0E0026FF0E62
:1027D0000122FF0E0222FF0E0322045005100610F4
:1027E0000710EBE19094030E8D6E00000000006A6C
:1027F00000C001F0026A000E025C02E1030E015CFF
:1028000039E29080110E016E026A036A046A01C007
:1028100005F002C006F003C007F004C008F0FF0E88
:102820000126FF0E0222FF0E0322FF0E0422055096
:10283000061007100810EBE19090480E016E0D0E87
:10284000026E036A046A01C005F002C006F003C00C
:1028500007F004C008F0FF0E0126FF0E0222FF0E53
:102860000322FF0E04220550061007100810EBE1AA
:10287000002ABED7380EE56E000EE56E9EEC20F005
:10288000020EE126550E006E016A026A036A00C05C
:1028900004F001C005F002C006F003C007F0FF0E0F
:1028A0000026FF0E0122FF0E0222FF0E032204501B
:1028B000051006100710EBE1060EE56E000EE56E42
:1028C0009EEC20F0020EE126550E006E016A026AAF
:1028D000036A00C004F001C005F002C006F003C0A6
:1028E00007F0FF0E0026FF0E0122FF0E0222FF0E50
:1028F00003220450051006100710EBE10C0EE56EE4
:10290000000EE56E9EEC20F0020EE126550E006EE4
:10291000016A026A036A00C004F001C005F002C047
:1029200006F003C007F0FF0E0026FF0E0122FF0E87
:102930000222FF0E03220450051006100710EBE1DF
:10294000010EE56E000EE56E9EEC20F0020EE12613
:10295000480E006E0D0E016E026A036A00C004F09C
:1029600001C005F002C006F003C007F0FF0E00260C
:10297000FF0E0122FF0E0222FF0E0322045005105B
:1029800006100710EBE1E4CF08F0E4CF07F0E4CF46
:1029900006F0E4CF05F0E4CF04F0E4CF03F0E4CF99
:1029A00002F0E4CF01F0E4CF00F0E4CFD9FF120051
:1029B000D9CFE5FFE1CFD9FF00C0E5FF01C0E5FFBA
:1029C00002C0E5FF03C0E5FF04C0E5FF05C0E5FF69
:1029D00006C0E5FF07C0E5FF020EDBCF00F0030EE7
:1029E000DBCF01F0040EDBCF02F0050EDBCF03F0EE
:1029F000060EDBCF04F0070EDBCF05F0080EDBCFB1
:102A000006F0090EDBCF07F000500F015C6F01509C
:102A10005D6F02505E6F03505F6F04500E012D6FAB
:102A200005502E6F06502F6F0750306F0F015C510D
:102A30000E012F03F3CF00F0F4CF01F000500E0190
:102A4000336F0150346F0F015C510E012D03F3CF32
:102A500000F0F4CF01F000500E01316F0150326FE1
:102A60000F015F510E012D03F3CF00F00E01345121
:102A700000260050346F0F015E510E012E03F3CF7C
:102A800000F00E01345100260050346F0F015E51EA
:102A90000E012D03F3CF00F0F4CF01F00E013351FE
:102AA0000026345101220050336F0150346F0F0162
:102AB0005D510E012E03F3CF00F0F4CF01F00E01B3
:102AC00033510026345101220050336F0150346FCE
:102AD0000F015D510E012F03F3CF00F000500E01E6
:102AE000386F0F015D510E012D03F3CF00F0F4CFCD
:102AF00001F000500E01366F0150376F0F015C512D
:102B00000E013003F3CF00F000500E013C6F0F01B7
:102B10005C510E012E03F3CF00F0F4CF01F0005012
:102B20000E013A6F01503B6F0E01356B0E01396B90
:102B30000E0135510E013125006E0E0136510E0188
:102B40003221016E0E0137510E013321026E0E014A
:102B500038510E013421036E0050316F0150326F35
:102B60000250336F0350346F0E0139510E0131257D
:102B7000006E0E013A510E013221016E0E013B51E1
:102B80000E013321026E0E013C510E013421036E01
:102B900003C0E9FF02C0F4FF01C0F3FF0050E4CF1F
:102BA00007F0E4CF06F0E4CF05F0E4CF04F0E4CF83
:102BB00003F0E4CF02F0E4CF01F0E4CF00F0E4CF83
:102BC000D9FF1200D9CFE5FFE1CFD9FF00C0E5FF63
:102BD00001C0E5FF02C0E5FF03C0E5FF04C0E5FF5B
:102BE00005C0E5FF06C0E5FF07C0E5FF08C0E5FF3B
:102BF00009C0E5FF0AC0E5FF0BC0E5FF0CC0E5FF1B
:102C00000DC0E5FF0EC0E5FF0FC0E5FF10C0E5FFFA
:102C100011C0E5FF12C0E5FF13C0E5FF14C0E5FFDA
:102C200015C0E5FF020EDBCF00F0030EDBCF01F095
:102C3000040EDBCF02F0050EDBCF03F0060EDBCF78
:102C400004F0070EDBCF05F0080EDBCF06F0090E0F
:102C5000DBCF07F000C008F001C009F002C00AF0A5
:102C600003C00BF004C00CF005C00DF006C00EF060
:102C700007C00FF006500710D8B43ED003C010F0C4
:102C800004C011F005C012F006C013F007C014F024
:102C9000FF0E1326D8A01406135014101DE010C008
:102CA000E9FF11C0F3FF125094EC21F0156E102AC9
:102CB000D8B0112AD8B0122A15C0E5FF00C0E9FF2C
:102CC00001C0F3FF0250C9EC21F0002AD8B0012A5C
:102CD000D8B0022A1550DCE110C00BF011C00CF086
:102CE00012C00DF000C008F001C009F002C00AF0E7
:102CF00013C00EF014C00FF00E500F1027E1065055
:102D0000071009E0000EE56E08C0E9FF09C0F3FFF7
:102D10000A50C9EC21F00BC000F00CC001F00DC04E
:102D200002F000C0E9FF01C0F3FF025094EC21F073
:102D3000066E002AD8B0012AD8B0022A0650F1E166
:102D400000C00BF001C00CF002C00DF003500B5C92
:102D5000036E04500C58046EFF0E0326D8A0040620
:102D600004C0F3FF0350E4CF15F0E4CF14F0E4CF38
:102D700013F0E4CF12F0E4CF11F0E4CF10F0E4CF81
:102D80000FF0E4CF0EF0E4CF0DF0E4CF0CF0E4CF81
:102D90000BF0E4CF0AF0E4CF09F0E4CF08F0E4CF81
:102DA00007F0E4CF06F0E4CF05F0E4CF04F0E4CF81
:102DB00003F0E4CF02F0E4CF01F0E4CF00F0E4CF81
:102DC000D9FF1200D9CFE5FFE1CFD9FF00C0E5FF61
:102DD00001C0E5FF02C0E5FF03C0E5FF04C0E5FF59
:102DE00005C0E5FF06C0E5FF07C0E5FF08C0E5FF39
:102DF00009C0E5FF0AC0E5FF0BC0E5FF0CC0E5FF19
:102E00000DC0E5FF0EC0E5FF0FC0E5FF020EDBCFF2
:102E100000F0030EDBCF01F0040EDBCF02F0050E55
:102E2000DBCF03F0060EDBCF04F0070EDBCF05F09F
:102E3000080EDBCF06F0200E076E086A06C009F008
:102E40000A6A0B6A0C6AE56AE56AE56A0950E56E8A
:102E50000350E56E0250E56E0150E56E0050E56EE0
:102E600026EC19F00D6E080EE126300E0D263A0EF6
:102E70000D5C02E3270E0D26FF0E0726D8A00806DC
:102E8000000E07240E6E0E0E08200F6E0EC0E9FF16
:102E90000FC0EAFF0DC0EFFF0C50E56E0B50E56E62
:102EA0000A50E56E0950E56E0350E56E0250E56E7E
:102EB0000150E56E0050E56EB8EC19F0006EF3CFEE
:102EC00001F0F4CF02F0E9CF03F0080EE126005044
:102ED000011002100310D8A4B1D707C000F008C039
:102EE00001F004C002F005C003F000C004F001C00E
:102EF00005F0002AD8B0012A000E04260E0E052285
:102F000004C0E9FF05C0EAFFEFCF04F002C0E9FF0B
:102F100003C0EAFF04C0EFFF022AD8B0032A000E64
:102F2000015C02E1200E005CE0E302C0E9FF03C0A7
:102F3000EAFF000EEF6AE4CF0FF0E4CF0EF0E4CF2B
:102F40000DF0E4CF0CF0E4CF0BF0E4CF0AF0E4CFC7
:102F500009F0E4CF08F0E4CF07F0E4CF06F0E4CFC7
:102F600005F0E4CF04F0E4CF03F0E4CF02F0E4CFC7
:102F700001F0E4CF00F0E4CFD9FF1200D9CFE5FF94
:102F8000E1CFD9FF00C0E5FF01C0E5FF02C0E5FFCA
:102F900003C0E5FF04C0E5FF05C0E5FF06C0E5FF8F
:102FA00007C0E5FF08C0E5FF09C0E5FF0AC0E5FF6F
:102FB0000BC0E5FF020EDBCF00F0030EDBCF01F00C
:102FC000040EDBCF02F0050EDBCF03F00050011042
:102FD0000210031005E1E96AF46AF36AE86A71D045
:102FE000960E046E056A035009E0D890033202324F
:102FF00001320032042AD8B0052AF5D704C006F001
:1030000005C007F0000E035C08E1800E025C05E1DC
:10301000000E015C02E1000E005C19E20050002687
:10302000013602360336FF0E0426D8A00506000E30
:10303000035C08E1800E025C05E1000E015C02E128
:10304000000E005CEBE304C006F005C007F0005082
:10305000046E0150056E7F0E0214086E096A04505A
:10306000FF0A08E10550FF0A05E108507F0A02E166
:10307000095001E007D0006A016A026A036A062A61
:10308000D8B0072A029EE86A073006300B6E0A6A3B
:103090000A32086A0850001201120A5002120B503C
:1030A000031200500E01616F0150626F0250636F96
:1030B0000350646F64CEE9FF63CEF4FF62CEF3FF8A
:1030C0006151E4CF0BF0E4CF0AF0E4CF09F0E4CF94
:1030D00008F0E4CF07F0E4CF06F0E4CF05F0E4CF4A
:1030E00004F0E4CF03F0E4CF02F0E4CF01F0E4CF4A
:1030F00000F0E4CFD9FF1200D9CFE5FFE1CFD9FF2F
:1031000000C0E5FF01C0E5FF02C0E5FF03C0E5FF29
:1031100004C0E5FF05C0E5FF06C0E5FF07C0E5FF09
:10312000020EDBCF00F0030EDBCF01F0040EDBCF8D
:1031300002F0050EDBCF03F0060EDBCF04F0070E26
:10314000DBCF05F0080EDBCF06F0090EDBCF07F072
:1031500000500E01596F01505A6F02505B6F0350BF
:103160005C6F04500E015D6F05505E6F06505F6F1F
:103170000750606F5D515E115F11601109E15CCE17
:10318000E9FF5BCEF4FF5ACEF3FF0E0159514BD04D
:103190000E0159515A115B115C1111E15DCE00F025
:1031A0005ECE01F05FCE02F060CE03F0037E03C07E
:1031B000E9FF02C0F4FF01C0F3FF005034D00E015C
:1031C0005D51006E5E51016E5F51026E800E60199E
:1031D000036E00505D6F01505E6F02505F6F0350D1
:1031E000606FE56E5F51E56E5E51E56E5D51E56EB7
:1031F0000E015C51E56E5B51E56E5A51E56E595119
:10320000E56EFAEC0BF0006EF3CF01F0F4CF02F0B4
:10321000E9CF03F0080EE12603C0E9FF02C0F4FF86
:1032200001C0F3FF0050E4CF07F0E4CF06F0E4CF95
:1032300005F0E4CF04F0E4CF03F0E4CF02F0E4CFF4
:1032400001F0E4CF00F0E4CFD9FF1200D9CFE5FFC1
:10325000E1CFD9FF00C0E5FF01C0E5FF02C0E5FFF7
:1032600003C0E5FF04C0E5FF05C0E5FF06C0E5FFBC
:1032700007C0E5FF08C0E5FF09C0E5FF0AC0E5FF9C
:10328000020EDBCF00F0030EDBCF01F0040EDBCF2C
:1032900002F0050EDBCF03F0060EDBCF04F0070EC5
:1032A000DBCF05F0080EDBCF06F0090EDBCF07F011
:1032B000086A096A0744010B0A6E0AB01BD0045061
:1032C00004260536063607360750035C08E106502B
:1032D000025C05E10550015C02E10450005C06E27D
:1032E000D890073206320532043204D0092A09C0C8
:1032F00008F0E0D70750035C08E10650025C05E1E6
:103300000550015C02E10450005C08E30450005EDB
:103310000550015A0650025A0750035AD8900732F6
:1033200006320532043208C009F008060950E2E10D
:1033300003C0E9FF02C0F4FF01C0F3FF0050E4CF77
:103340000AF0E4CF09F0E4CF08F0E4CF07F0E4CFCF
:1033500006F0E4CF05F0E4CF04F0E4CF03F0E4CFCF
:1033600002F0E4CF01F0E4CF00F0E4CFD9FF120087
:10337000D9CFE5FFE1CFD9FF00C0E5FF01C0E5FFF0
:1033800002C0E5FF03C0E5FF04C0E5FF05C0E5FF9F
:1033900006C0E5FF07C0E5FF08C0E5FF09C0E5FF7F
:1033A0000AC0E5FF0BC0E5FF0CC0E5FF0DC0E5FF5F
:1033B000020EDBCF00F0030EDBCF01F0040EDBCFFB
:1033C00002F0050EDBCF03F0060EDBCF04F0070E94
:1033D000DBCF05F0080EDBCF06F0090EDBCF07F0E0
:1033E000086A096A0A6A0B6A200E0C6E0344010B14
:1033F0000D6E010E0D160050002601360236033602
:103400000850082609360A360B360D50D8A4088015
:1034100007500B5C08E106500A5C05E10550095CA9
:1034200002E10450085C09E30450085E0550095AA3
:1034300006500A5A07500B5A00800C2ED7D703C0EB
:10344000E9FF02C0F4FF01C0F3FF0050E4CF0DF02C
:10345000E4CF0CF0E4CF0BF0E4CF0AF0E4CF09F0B6
:10346000E4CF08F0E4CF07F0E4CF06F0E4CF05F0B6
:10347000E4CF04F0E4CF03F0E4CF02F0E4CF01F0B6
:10348000E4CF00F0E4CFD9FF1200D9CFE5FFE1CFC0
:10349000D9FF00C0E5FF01C0E5FF02C0E5FF03C0A2
:1034A000E5FF04C0E5FF05C0E5FF06C0E5FF07C076
:1034B000E5FF020EDBCF00F0030EDBCF01F0040EC0
:1034C000DBCF02F0050EDBCF03F002C006F00650A2
:1034D000046E800A28E100C0E9FF01C0F3FF02503A
:1034E0004CEC21F0056EF3CF06F0F4CF07F003C0EB
:1034F000E5FF05C0E9FF06C0F3FF0750C9EC21F066
:10350000052AD8B0062AD8B0072A05C0E5FF06C0AC
:10351000F4FF07C0F6FF00C0E9FF01C0F3FF02504F
:10352000A5EC21F01ED004AA1CD0200E041A0450D1
:1035300004E1035006EC00F014D00450010A04E149
:10354000035002EC00F00DD004500F0A04E10350C8
:103550000AEC00F006D004500E0A03E10350DAEC46
:1035600021F0E4CF07F0E4CF06F0E4CF05F0E4CF9C
:1035700004F0E4CF03F0E4CF02F0E4CF01F0E4CFB5
:1035800000F0E4CFD9FF1200D9CFE5FFE1CFD9FF9A
:1035900000C0E5FF01C0E5FF02C0E5FF03C0E5FF95
:1035A00004C0E5FF05C0E5FF06C0E5FF07C0E5FF75
:1035B000020EDBCF00F0030EDBCF01F0040EDBCFF9
:1035C00002F0050EDBCF03F0D88001AED890046A7C
:1035D0000436045007E0011C066E001C056E054A07
:1035E000062A04D000C005F001C006F005C000F0B6
:1035F00006C001F0D88003AED890056A05360550A4
:1036000007E0031C076E021C066E064A072A04D058
:1036100002C006F003C007F00750E56E0650E56EE5
:103620000150E56E0050E56E84EC1EF0006EF3CFA5
:1036300001F0040EE1260550041A04500AE0011CB2
:10364000036E001C026E024A032A03C0F3FF0250FD
:1036500003D001C0F3FF0050E4CF07F0E4CF06F041
:10366000E4CF05F0E4CF04F0E4CF03F0E4CF02F0C0
:10367000E4CF01F0E4CF00F0E4CFD9FF1200D9CFBE
:10368000E5FFE1CFD9FF00C0E5FF01C0E5FF02C0C3
:10369000E5FF03C0E5FF04C0E5FF05C0E5FF020E3E
:1036A000DBCF00F0030EDBCF01F0040EDBCF02F026
:1036B000050EDBCF03F000500E01556F0150566F21
:1036C0000250576F0350586F5551561157115811EA
:1036D00008E05845010B006E016A026A036A00A007
:1036E00005D0E96AF46AF36AE86A30D00E0157350A
:1036F0005835006E016A6A0E0026FF0E01225551F0
:10370000026E5651036E7F0E5715046E056A048EC5
:10371000011E006CD8B4012A005011E009E6E86CE3
:10372000D8900532043203320232010FFAE307D097
:10373000D8900236033604360536010FFAE305C089
:10374000E9FF04C0F4FF03C0F3FF0250E4CF05F02B
:10375000E4CF04F0E4CF03F0E4CF02F0E4CF01F0D3
:10376000E4CF00F0E4CFD9FF1200D9CFE5FFE1CFDD
:10377000D9FF00C0E5FF01C0E5FF02C0E5FF03C0BF
:10378000E5FF04C0E5FF05C0E5FF050ED924006E86
:10379000000EDA20016E030E0026D8B0012A020EB8
:1037A000DBCF03F0030EDBCF04F0040EDBCF05F01C
:1037B000800EE56E0150E56E0050E56E070EDBCF22
:1037C000E5FF060EDBCFE5FF050EDBCFE5FF05507D
:1037D000E56E0450E56E0350E56E0EEC00F0006EF1
:1037E000F3CF01F0090EE12606C0E5FF07C0E5FFB3
:1037F00008C0E5FF020EDBCF06F0030EDBCF07F0BB
:10380000040EDBCF08F000500624026E01500720A2
:10381000036EE86A0820E4CF08F0E4CF07F0E4CFB5
:1038200006F0E56A02C0E9FF03C0F3FFC9EC21F02E
:1038300001C0F3FF0050E4CF05F0E4CF04F0E4CF83
:1038400003F0E4CF02F0E4CF01F0E4CF00F0E4CFE6
:10385000D9FF1200D9CFE5FFE1CFD9FF00C0E5FFC6
:1038600001C0E5FF02C0E5FF03C0E5FF04C0E5FFBE
:1038700005C0E5FF06C0E5FF020EDBCF00F0030E3A
:10388000DBCF01F0040EDBCF02F0050EDBCF03F03F
:10389000D88001AED890046A0436045007E0011CB9
:1038A000066E001C056E054A062A04D000C005F00D
:1038B00001C006F005C000F006C001F0D88003AEDC
:1038C000D89007E3031C066E021C056E054A062A03
:1038D00004D002C005F003C006F00650E56E0550A6
:1038E000E56E0150E56E0050E56ED0EC1DF0006E07
:1038F000F3CF01F0040EE12604500AE0011C036E30
:10390000001C026E024A032A03C0F3FF025003D0D8
:1039100001C0F3FF0050E4CF06F0E4CF05F0E4CFA0
:1039200004F0E4CF03F0E4CF02F0E4CF01F0E4CF01
:1039300000F0E4CFD9FF1200D9CFE5FFE1CFD9FFE6
:1039400000C0E5FF01C0E5FF02C0E5FF03C0E5FFE1
:1039500004C0E5FF05C0E5FF06C0E5FF07C0E5FFC1
:10396000020EDBCF00F0030EDBCF01F0040EDBCF45
:1039700002F0050EDBCF03F00350E56E0250E56E5A
:103980000150E56EBBEC1FF0046EF3CF05F0030EA3
:10399000E126042A00502008056E066A000E002663
:1039A0000F0E06220650066E0050006E800E076E47
:1039B0000550045C02E305C004F0056A0550E56E9D
:1039C0000450E56E0350E56E0250E56E0150E56E61
:1039D0000750E56E0650E56E0050E56EE2EC15F01E
:1039E000080EE12675EC12F0E4CF07F0E4CF06F004
:1039F000E4CF05F0E4CF04F0E4CF03F0E4CF02F02D
:103A0000E4CF01F0E4CF00F0E4CFD9FF1200D9CF2A
:103A1000E5FFE1CFD9FF00C0E5FF01C0E5FF02C02F
:103A2000E5FF03C0E5FF04C0E5FF05C0E5FF06C0F4
:103A3000E5FF07C0E5FF08C0E5FF09C0E5FF020E8E
:103A4000DBCF00F0030EDBCF01F0040EDBCF02F082
:103A5000050EDBCF03F0060EDBCF04F00150066E3F
:103A60000050056E800E076E03C008F004C009F018
:103A7000FF0E0326D8A00406085009100FE002C06C
:103A8000E5FF05C0E9FF06C0F3FF0750C9EC21F0D0
:103A9000052AD8B0062AD8B0072AE6D7800E026ECB
:103AA00002C0F4FF01C0F3FF0050E4CF09F0E4CFFF
:103AB00008F0E4CF07F0E4CF06F0E4CF05F0E4CF60
:103AC00004F0E4CF03F0E4CF02F0E4CF01F0E4CF60
:103AD00000F0E4CFD9FF1200D9CFE5FFE1CFD9FF45
:103AE00000C0E5FF01C0E5FF02C0E5FF03C0E5FF40
:103AF00004C0E5FF05C0E5FF06C0E5FF020EDBCF11
:103B000000F0030EDBCF01F0040EDBCF02F0050E58
:103B1000DBCF03F0060EDBCF04F0070EDBCF05F0A2
:103B2000080EDBCF06F0D88003AED89016E306501F
:103B30000A0A13E104C0E9FF05C0EAFF2D0EEF6E8B
:103B4000042AD8B0052A031E021E011E006C05E1DE
:103B5000012A03E1022AD8B4032A0650E56E055073
:103B6000E56E0450E56E0350E56E0250E56E0150BF
:103B7000E56E0050E56EE2EC16F0070EE126E4CFAC
:103B800006F0E4CF05F0E4CF04F0E4CF03F0E4CF97
:103B900002F0E4CF01F0E4CF00F0E4CFD9FF12004F
:103BA000D9CFE5FFE1CFD9FF00C0E5FF01C0E5FFB8
:103BB00002C0E5FF03C0E5FF04C0E5FF05C0E5FF67
:103BC00006C0E5FF020EDBCF00F0030EDBCF01F0F5
:103BD000040EDBCF02F0050EDBCF03F0046A056AAA
:103BE0000344010B066E06B011D0025002260336C4
:103BF0000350015C02E10250005C04E2D890033201
:103C0000023204D0052A05C004F0EAD70350015C53
:103C100002E10250005C04E30250005E0350015ACE
:103C2000D8900332023204C005F004060550EEE1DC
:103C300001C0F3FF0050E4CF06F0E4CF05F0E4CF7D
:103C400004F0E4CF03F0E4CF02F0E4CF01F0E4CFDE
:103C500000F0E4CFD9FF1200D9CFE5FFE1CFD9FFC3
:103C600000C0E5FF01C0E5FF02C0E5FF03C0E5FFBE
:103C700004C0E5FF05C0E5FF06C0E5FF07C0E5FF9E
:103C8000010EE56E000EE56E9EEC20F0020EE126C0
:103C9000480E006E0D0E016E026A036A00C004F049
:103CA00001C005F002C006F003C007F0FF0E0026B9
:103CB000FF0E0122FF0E0222FF0E03220450051008
:103CC00006100710EBE1000EE56E200EE56E200EEB
:103CD000E56E0F0EE56E000EE56E07EC1DF0050EAD
:103CE000E126E4CF07F0E4CF06F0E4CF05F0E4CF1F
:103CF00004F0E4CF03F0E4CF02F0E4CF01F0E4CF2E
:103D000000F0E4CFD9FF1200D9CFE5FFE1CFD9FF12
:103D100000C0E5FF01C0E5FF02C0E5FF03C0E5FF0D
:103D200004C0E5FF05C0E5FF06C0E5FF07C0E5FFED
:103D3000020EDBCF00F0030EDBCF01F0040EDBCF71
:103D400002F0050EDBCF03F0046A056A100E066E62
:103D50000144010B076E010E0716005000260136C4
:103D60000450042605360750D8A404800350055C8F
:103D700002E10250045C05E30250045E0350055A60
:103D80000080062EE5D701C0F3FF0050E4CF07F016
:103D9000E4CF06F0E4CF05F0E4CF04F0E4CF03F085
:103DA000E4CF02F0E4CF01F0E4CF00F0E4CFD9FF9C
:103DB0001200D9CFE5FFE1CFD9FF00C0E5FF01C078
:103DC000E5FF02C0E5FF03C0E5FF020EDBCF00F018
:103DD0004BCF01F0026A036A005001260350022211
:103DE000000EE56E3C0EE56E0250E56E0150E56E8C
:103DF000C4EC1AF0016EF3CF02F0040EE12601507C
:103E000005E00150E56E6AEC20F0E12A4BCF01F0AD
:103E1000026A0150002602500322000EE56E3C0E9D
:103E2000E56E0350E56E0050E56E2AEC1CF0006E66
:103E3000F3CF01F0040EE12600500F014B6FE4CFE9
:103E400003F0E4CF02F0E4CF01F0E4CF00F0E4CFE0
:103E5000D9FF1200A60EF66E430EF76E000EF86E36
:103E60000900F550056E0900F550066E055002E197
:103E700006503BE00900F550006E0900F550016E58
:103E80000900F550026E09000900F550E96E0900BD
:103E9000F550EA6E090009000900F550036E0900AB
:103EA000F550046E09000900F6CF07F0F7CF08F0CF
:103EB000F8CF09F000C0F6FF01C0F7FF02C0F8FF1D
:103EC000035002E1045007E00900F550EE6E0306CE
:103ED000F8E20406F9D707C0F6FF08C0F7FF09C0EB
:103EE000F8FF0506C4E20606C5D71200D9CFE5FFE4
:103EF000E1CFD9FF0F0147510F014A1901E038D036
:103F00000F0148510F014B1901E032D00F014E5102
:103F10002FE01F0E0F01495D0FE20F0150510CE120
:103F20000F015151090A04E00F0151510B0A20E120
:103F30000A0E0F01516F1CD01F0E0F01495D18E3CF
:103F40000F01506B919291940F014F510AE04CCFA9
:103F50004AFF4DCF4BFF0F014F6B090E0F01516F01
:103F600007D00F0151510A0A03E1090E0F01516FE9
:103F7000E4CFD9FF1200D9CFE5FFE1CFD9FF00C0D0
:103F8000E5FF01C0E5FF02C0E5FF03C0E5FF04C097
:103F9000E5FF05C0E5FF020EDBCF00F0030EDBCF2F
:103FA00001F0040EDBCF02F0036A046A00C0E9FFEF
:103FB00001C0F3FF025094EC21F0056E002AD8B046
:103FC000012AD8B0022A055004E0032AD8B0042AF6
:103FD000EDD704C0F3FF0350E4CF05F0E4CF04F0C5
:103FE000E4CF03F0E4CF02F0E4CF01F0E4CF00F03F
:103FF000E4CFD9FF1200E8CFE5FFD8CFE5FFE0CF4F
:10400000E5FFF3CFE5FFF4CFE5FFE9CFE5FFEACF2A
:10401000E5FFFACFE5FFFBCFE5FFD9CFE5FFE1CF25
:10402000D9FFF0A405D0010E0F01416FF09406D026
:10403000F0A004D0010E0F01426FF090E4CFD9FF41
:10404000E4CFFBFFE4CFFAFFE4CFEAFFE4CFE9FFE0
:10405000E4CFF4FFE4CFF3FFE4CFE0FFE4CFD8FFF9
:10406000E4CFE8FF1000D9CFE5FFE1CFD9FF00C0D2
:10407000E5FF01C0E5FF02C0E5FF03C0E5FF04C0A6
:10408000E5FF020EDBCF00F0030EDBCF01F0026A8A
:10409000080E036E800E0014046ED8900036D8907F
:1040A00002360450D8A402800150025C03E30150A0
:1040B000025E0080032EEED70050E4CF04F0E4CF80
:1040C00003F0E4CF02F0E4CF01F0E4CF00F0E4CF5E
:1040D000D9FF1200D9CFE5FFE1CFD9FF00C0E5FF3E
:1040E00001C0E5FF02C0E5FF03C0E5FF020EDBCF24
:1040F00000F04ACF01F0026A036A00500126035023
:104100000222000EE56E180EE56E0250E56E0150BB
:10411000E56E2AEC1CF0006EF3CF01F0040EE126F0
:1041200000500F014A6FE4CF03F0E4CF02F0E4CF78
:1041300001F0E4CF00F0E4CFD9FF1200D9CFE5FFC2
:10414000E1CFD9FF00C0E5FF01C0E5FF020EDBCFE4
:1041500000F0030EDBCF01F0966A99949992909249
:104160000050010BE844E844F46E9050FB0BF4104F
:10417000906E01C08DFF00000000908000000000E4
:10418000000000000000000000000000000090900F
:10419000E4CF01F0E4CF00F0E4CFD9FF1200D9CF93
:1041A000E5FFE1CFD9FF00C0E5FF01C0E5FF02C098
:1041B000E5FF03C0E5FF020EDBCF00F0E56AE56A2C
:1041C000E56A0050E56EBEEC17F0006EF3CF01F02B
:1041D000F4CF02F0E9CF03F0040EE12603C0E9FFBB
:1041E00002C0F4FF01C0F3FF0050E4CF03F0E4CFBE
:1041F00002F0E4CF01F0E4CF00F0E4CFD9FF1200E9
:10420000D08EF28EF28CD58EF28AF294F184D59C07
:10421000D59AD586D66AD76A9A909A929A949190AE
:104220009192919493869382F08AF094F086F09024
:10423000F09CF192AAEC13F0010E0F01516F0E01E8
:10424000682BD58EC2EC0DF023EC07F076EC1FF056
:1042500029EC04F0F7D71200E8AE0AD0F3CFEAFF5A
:10426000EE50EECFF3FFEECFF4FFEECFE9FF1200FA
:10427000E8BC11D0E9CFF6FFF3CFF7FFF86E0900E5
:10428000F5500900F5CFF3FF0900F5CFF4FF090061
:10429000F5CFE9FF12001200E8AE08D0F3CFEAFF35
:1042A000EE50EECFF3FFEECFF4FF1200E8BC0ED0DD
:1042B000E9CFF6FFF3CFF7FFF86E0900F5500900DC
:1042C000F5CFF3FF0900F5CFF4FF12001200D9CFAC
:1042D000E5FFE1CFD9FF00C0E5FF020EDBCF00F024
:1042E000610E005C05E37B0E005C02E2010E01D072
:1042F000E86AE4CF00F0E4CFD9FF1200E8AE06D0C0
:10430000F3CFEAFFEE50EECFF3FF1200E8BC0BD084
:10431000E9CFF6FFF3CFF7FFF86E0900F55009007B
:10432000F5CFF3FF12001200E8AE04D0F3CFEAFF9E
:10433000EE501200E8BC08D0E9CFF6FFF3CFF7FF4C
:10434000F86E0900F55012001200E8AE09D0F3CF64
:10435000EAFFE4CFEEFFF4CFEEFFF6CFEEFF120060
:10436000E8AC1200120017EEFFF027EEFFF0F86A3B
:10437000A68EA69C2AEC1FF000EC21F0FFD70000CF
:10438000000000000000000000000000000000002D
:104390000000E8AE05D0F3CFEAFFE4CFEEFF120055
:1043A000E8AC1200120001007E430000410F000043
:0A43B00013000000E8CF7FFF1200A9
:00000001FF
